:10000000C2C00000E0C00000DEC000004AC2000024
:10001000DAC00000D8C00000D6C00000D4C0000084
:10002000D2C00000D0C00000CEC00000CCC0000094
:10003000CAC00000C8C00000C6C00000C4C00000A4
:10004000C2C00000C0C00000BEC00000BCC00000B4
:10005000BAC00000B8C00000B6C00000B4C00000C4
:10006000B2C00000B0C00000AEC00000ACC00000D4
:10007000AAC00000A8C00000A6C00000A4C00000E4
:10008000A2C00000A0C000009EC000009CC00000F4
:100090009AC0000098C0000096C000002BC4000069
:1000A00092C0000090C000008EC000008CC0000014
:1000B0008AC0000088C0000086C0000084C0000024
:1000C00082C0000080C000007EC000007CC0000034
:1000D0007AC0000078C0000076C0000074C0000044
:1000E00072C000009504E704E704E704E704E704AE
:1000F000E704E7049504E704E704E704E704E704FA
:10010000E704E7049704E704E704E704E704E704E7
:10011000E704E704E704E704E704E704E704E70487
:10012000E704E7049704E704E704E704E704E704C7
:10013000E704E704E704E704E704E704E704E70467
:10014000E704E704E304E704E704E704E704E7045B
:10015000E704E704C004E704E704E704E704E7046E
:10016000E704E704E704E704E704E704E704E70437
:10017000E704E704B404E704E704E704E704E7045A
:10018000E704E704D20411241FBECFEFD1E2DEBFA3
:10019000CDBF00E00CBF12E0A0E0B2E0E6E4F7E182
:1001A00000E00BBF02C007900D92A83BB107D9F742
:1001B00022E0A8EBB2E001C01D92AD3CB207E1F72E
:1001C00003D00C94A10B1CCFCF93DF93CDB7DEB738
:1001D00066970FB6F894DEBF0FBECDBF87E690E0FE
:1001E0001ED46AD09AD1F7D23BD299D1F82EEE2400
:1001F000E394D12C02E112E0CE010C96C6D08C859E
:100200009D85019721F5CF848C2D8195EFD28E2D80
:100210001C140CF08D2D13D26C2D772767FD709573
:1002200077231CF4719561957109882777FD809576
:10023000982F06D520E030E048EC52E46BD420E063
:1002400030E04FE753E4B0D5CDD4862FF6D167D157
:10025000C82E8F1539F01A8219828C83EB82CE0159
:10026000019643D041D29F938F931F930F934FD604
:100270008FE39CE90197F1F700C000000F900F9009
:100280000F900F90FC2CB8CFEAE7F0E080818068F7
:10029000808380818760808308958F7180668093DA
:1002A0007C00EAE7F0E0808180648083808186FDC5
:1002B000FDCF809179000895A2D140E060EE8FE0FB
:1002C00081D18EE040D1807E21F084E292E030C680
:1002D000089543E26FEF8BE275D1E9E6F0E08081AB
:1002E00080628083EA9A789408950F931F93CF9346
:1002F000DF93CDB7DEB7DC010DB71EB712964C9178
:10030000129750E04B5F5F4F8DB79EB7841B950BE4
:100310000FB6F8949EBF0FBE8DBF6DB77EB76F5FEF
:100320007F4F8D919C91119796958795969587957E
:1003300096958795EDB7FEB781838C918295880F4E
:10034000807EFB0181831282138212968C91129718
:100350008483463051055CF01396359625E030E0F5
:100360008D9181932F5F3F4F24173507CCF381E3A5
:10037000FAD081E01BD10FB6F8941EBF0FBE0DBF9F
:10038000DF91CF911F910F9108958F929F92AF921D
:10039000BF92CF92DF92EF92FF920F931F93CF9372
:1003A000DF93CDB7DEB72B970FB6F894DEBF0FBE45
:1003B000CDBF7C018091C2028823B1F181E6C3D018
:1003C000A82E82E6C0D0829586958770B12CAA0CA3
:1003D000BB1CAA0CBB1CAA0CBB1CA82A85E6B3D06C
:1003E0008F70882E99F08E010C5F1F4F6801C80E28
:1003F000D11C0F2EF6E69F2EF02D892DA4D0F801EA
:1004000081938F019394EC15FD05B9F71092C20208
:10041000BA82A9828B828BE0FE013196D7010190CE
:100420000D928A95E1F708C08BE0E6E0F2E0D70193
:1004300001900D928A95E1F7C7012B960FB6F894BB
:10044000DEBF0FBECDBFDF91CF911F910F91FF9007
:10045000EF90DF90CF90BF90AF909F908F900895D6
:10046000CF938DE270D0C82F82FF03C08FE492E05B
:100470005FD5C1FF03C08DE692E05AD5CF910895B4
:10048000CF938CE260D0C82F85FDEADFC0FF03C0A8
:1004900081E08093C20240E06FEF8CE293D0CF9175
:1004A00008951F920F920FB60F9211240BB60F9260
:1004B0002F933F934F935F936F937F938F939F936C
:1004C000AF93BF93EF93FF93DBDFFF91EF91BF916A
:1004D000AF919F918F917F916F915F914F913F91DC
:1004E0002F910F900BBE0F900FBE0F901F9018957D
:1004F000D5C10895CF93DF9300D0CDB7DEB790E597
:1005000099831A828B8363E0CE010196D1D10F903B
:100510000F900F90DF91CF910895B6CE089580E0AF
:10052000BCDEA9EBB2E09C919093B802EAEBF2E05A
:1005300090819C93808380E0B0DE91E08F3008F062
:1005400090E0892F0895CF93C82FF894A3D183E02A
:100550009BD18C2F99D180E097D1C82F9DD17894D1
:100560008C2FCF910895EF92FF920F931F93CF930B
:10057000DF93C82F7B018A01F8948CD182E084D16B
:100580008C2F82D11016110644F4E7010E0D1F1DA9
:1005900089917AD1C017D107D9F77ED17894DF91AC
:1005A000CF911F910F91FF90EF900895CF93C82F97
:1005B000F89470D18C2F8770806866D16DD1789453
:1005C000CF9108951F93CF93DF93182FD62FC42F69
:1005D000F89460D185E058D1812F56D18D2F54D118
:1005E0008C2F52D159D17894DF91CF911F910895DA
:1005F000F89450D180EC48D14FD178940895CF939E
:10060000DF931F92CDB7DEB738D1F2DF8FE39CE9DD
:100610000197F1F700C000008EE095DF89838981A2
:10062000807E803829F086E892E082D481E001C0A3
:1006300080E00F90DF91CF9108955CCF08958111F4
:1006400006C0E2E0F1E080818D7F80830895E2E0E2
:10065000F1E0808182608083089580E04BCF08952F
:1006600047DFE1E0F1E080818A6780831092070133
:10067000E2E0F1E080818261808380818F7B8083F2
:100680002FEF89EF90E0215080409040E1F700C0CB
:100690000000808180648083E0CF0895CF93DF9352
:1006A000682F20E030E080E070E0A7E0B0E0E1E01B
:1006B000F0E0AB01022E02C0559547950A94E2F78F
:1006C00040FF0AC0AD01421B530BEF0102C0CC0F2B
:1006D000DD1F4A95E2F78C2B2F5F3F4F2830310505
:1006E00041F7DF91CF910895CF93DF931F921F922F
:1006F000CDB7DEB71A821982E2E0F1E080818F7D0A
:1007000080838081886080832FEF89EF90E0215083
:1007100080409040E1F700C0000080910601BEDFFC
:1007200029813A81382B3A832983E2E0F1E0808104
:10073000877F80832FEF89EF90E0215080409040A9
:10074000E1F700C0000080910601A8DF29813A810D
:10075000282B3A832983E2E0F1E080818F7B80833C
:100760002FEF89EF90E0215080409040E1F700C0EA
:1007700000008081806480838081806280838981A1
:100780009A810F900F90DF91CF910895A0E8B0E08B
:1007900022E02C93E1E8F0E028E120832C9120680E
:1007A0002C9320812360208320E030E04AE753E44B
:1007B000FBD218D27093870060938600259A089523
:1007C00020E030E04AE753E4EFD20CD27093890086
:1007D00060938800089560E070E080EA91E4D6DFDD
:1007E00067ED73EA80EC9FE3EBCF0895CF92DF9241
:1007F000EF92FF92682F772767FD7095872F972FCD
:100800001FD220E030E048EC52E484D120E030E018
:1008100040E05FE3C9D220E030E040EC5FE312D17A
:100820006B017C0126E636E646E050E4B9D21816A4
:1008300054F026E636E646E65FE3C701B60166D128
:1008400088235CF012C00F2EF6E6CF2EDC2CF6E0EB
:10085000EF2EF0E4FF2EF02D08C00F2EF6E6CF2E7F
:10086000DC2CEC2CFFE3FF2EF02DC701B601A8DF36
:10087000FF90EF90DF90CF90089587E884B9289A91
:100880008CB581658CBD08958EBD0DB407FEFDCF7E
:100890008EB508952F9808952F9A08958CE080932F
:1008A000B8008FEF8093BB0084E08093BC00089574
:1008B000ECEBF0E0208120FDFDCF6093BD02FC0158
:1008C00020812093BE0220FD0CC0623050F0DC017C
:1008D0001196EFEBF2E081E09D9191938F5F86138B
:1008E000FBCF1092BC0288EF8093110285EA8093BF
:1008F000BC0008951F920F920FB60F9211240BB6F1
:100900000F922F933F938F939F93AF93BF93EF9348
:10091000FF938091B90090E0FC013897E135F10533
:1009200008F055C0EE58FF4FA2C21092BB02E091F2
:10093000BB028091BD02E81770F481E08E0F8093B6
:10094000BB02F0E0E254FD4F80818093BB0085E85C
:100950008093BC0043C08091BC0281608093BC0244
:1009600084E98093BC003AC0E091BB0281E08E0F25
:100970008093BB028091BB00F0E0E254FD4F808386
:100980002091BB0230E08091BD0290E001972817D2
:10099000390724F485EC8093BC0020C085E880935F
:1009A000BC001CC08091BB00E091BB02F0E0E254AF
:1009B000FD4F80838091BC0281608093BC0284E9FA
:1009C0008093BC000BC085EA8093BC0007C0809177
:1009D000B9008093110284E08093BC00FF91EF91F5
:1009E000BF91AF919F918F913F912F910F900BBE2F
:1009F0000F900FBE0F901F901895E0ECF0E09081E3
:100A000095FFFDCF8093C60080E090E00895E0EC74
:100A1000F0E080818823ECF78091C60008959093E0
:100A2000C5008093C40088E18093C1008EE080936C
:100A3000C20067E075E08DEF94E01FD280E090E0A7
:100A400008955058BB27AA270ED070C161D130F04D
:100A500066D120F031F49F3F11F41EF456C10EF41C
:100A6000E095E7FB4CC1E92F72D180F3BA1762071A
:100A700073078407950718F071F49EF58AC10EF488
:100A8000E0950B2EBA2FA02D0B01B90190010C019E
:100A9000CA01A0011124FF27591B99F0593F50F4B6
:100AA000503E68F11A16F040A22F232F342F44270E
:100AB000585FF3CF469537952795A795F040539506
:100AC000C9F77EF41F16BA0B620B730B840BBAF0D6
:100AD0009150A1F0FF0FBB1F661F771F881FC2F741
:100AE0000EC0BA0F621F731F841F48F48795779555
:100AF0006795B795F7959E3F08F0B3CF9395880F0C
:100B000008F09927EE0F979587950895D4D008F4AB
:100B100081E008950CD00AC102D140F0F9D030F044
:100B200021F45F3F19F0EBC0511134C1EEC00FD179
:100B300098F39923C9F35523B1F3951B550BBB27A4
:100B4000AA2762177307840738F09F5F5F4F220F51
:100B5000331F441FAA1FA9F333D00E2E3AF0E0E84A
:100B600030D091505040E695001CCAF729D0FE2F96
:100B700027D0660F771F881FBB1F26173707480728
:100B8000AB07B0E809F0BB0B802DBF01FF279358DE
:100B90005F4F2AF09E3F510568F0B1C0FBC05F3F38
:100BA000ECF3983EDCF3869577956795B795F795C6
:100BB0009F5FC9F7880F911D9695879597F90895BE
:100BC000E1E0660F771F881FBB1F6217730784075A
:100BD000BA0720F0621B730B840BBA0BEE1F88F769
:100BE000E0950895BCD088F09F5790F0B92F9927D1
:100BF000B751A0F0D1F0660F771F881F991F1AF028
:100C0000BA95C9F712C0B13081F0C3D0B1E00895F0
:100C1000C0C0672F782F8827B85F39F0B93FCCF371
:100C2000869577956795B395D9F73EF4909580951D
:100C3000709561957F4F8F4F9F4F0895E89409C03D
:100C400097FB3EF490958095709561957F4F8F4FFF
:100C50009F4F9923A9F0F92F96E9BB279395F69515
:100C6000879577956795B795F111F8CFFAF4BB0F93
:100C700011F460FF1BC06F5F7F4F8F4F9F4F16C0F7
:100C8000882311F096E911C0772321F09EE8872F81
:100C9000762F05C0662371F096E8862F70E060E03D
:100CA0002AF09A95660F771F881FDAF7880F9695B6
:100CB000879597F90895990F0008550FAA0BE0E85A
:100CC000FEEF16161706E807F907C0F0121613060E
:100CD000E407F50798F0621B730B840B950B39F44E
:100CE0000A2661F0232B242B252B21F408950A26B4
:100CF00009F4A140A6958FEF811D811D089597F9F4
:100D00009F6780E870E060E008959FEF80EC0895B1
:100D100000240A94161617061806090608950024DA
:100D20000A9412161306140605060895092E039454
:100D3000000C11F4882352F0BB0F40F4BF2B11F4C8
:100D400060FF04C06F5F7F4F8F4F9F4F089557FD27
:100D50009058440F551F59F05F3F71F04795880F29
:100D600097FB991F61F09F3F79F0879508951216C0
:100D700013061406551FF2CF4695F1DF08C016166C
:100D800017061806991FF1CF86957105610508941D
:100D90000895E894BB2766277727CB0197F9089534
:100DA0008ADF08F48FEF08950BD0C0CFB1DF28F0B1
:100DB000B6DF18F0952309F0A2CFA7CF1124EACF10
:100DC000C6DFA0F3959FD1F3950F50E0551F629FAA
:100DD000F001729FBB27F00DB11D639FAA27F00D94
:100DE000B11DAA1F649F6627B00DA11D661F829FBB
:100DF0002227B00DA11D621F739FB00DA11D621FA0
:100E0000839FA00D611D221F749F3327A00D611DBC
:100E1000231F849F600D211D822F762F6A2F11249E
:100E20009F5750408AF0E1F088234AF0EE0FFF1FF1
:100E3000BB1F661F771F881F91505040A9F79E3F28
:100E4000510570F05CCFA6CF5F3FECF3983EDCF32A
:100E5000869577956795B795F795E7959F5FC1F765
:100E6000FE2B880F911D9695879597F90895EE0FA3
:100E7000FF1F0590F491E02D19940F931F93CF93CA
:100E8000DF93EC018B01009731F46115710519F4C2
:100E900080E090E037C06EE070E081E090E063D2E7
:100EA000FC010097A9F380E883830115110571F017
:100EB0001387028781E883838091C3029091C402E3
:100EC000892B21F4F093C402E093C3022097C9F068
:100ED000D187C0878381826083838091C50290918E
:100EE000C602892B71F4F093C602E093C50280918B
:100EF000C7029091C802892B21F4F093C802E093B5
:100F0000C702CF01DF91CF911F910F910895CF9329
:100F1000DF93CDB7DEB7FE01369661917191AF01D7
:100F20008091C5029091C60230D0DF91CF91089593
:100F30000F931F93CF93DF93E091C502F091C60208
:100F4000238121FF1BC0EC0100E010E0899160913A
:100F5000C5027091C602DB011896ED91FC911997BC
:100F6000882331F01995892B89F30FEF1FEFEECF0E
:100F70008AE01995892B11F4C80102C08FEF9FEF09
:100F8000DF91CF911F910F9108952F923F924F9231
:100F90005F926F927F928F929F92AF92BF92CF9209
:100FA000DF92EF92FF920F931F93CF93DF93CDB712
:100FB000DEB72C970FB6F894DEBF0FBECDBF7C0115
:100FC0006B018A01FC0117821682838181FFB0C107
:100FD000CE0101964C01F7019381F60193FD8591B5
:100FE00093FF81916F01882309F49EC1853239F402
:100FF00093FD859193FF81916F01853221F4B701B3
:1010000090E00FD3E8CF512C312C20E02032A0F417
:101010008B3269F030F4803259F0833269F4206108
:101020002CC08D3239F0803339F4216026C0226023
:10103000246023C0286021C027FD27C030ED380F71
:101040003A3078F426FF06C0FAE05F9E300D112496
:10105000532E13C08AE0389E300D1124332E2062A7
:101060000CC08E3221F426FD5FC1206406C08C3690
:1010700011F4206802C0883641F4F60193FD859191
:1010800093FF81916F018111C1CF982F9F7D95545E
:10109000933028F40C5F1F4FFFE3F9830DC08336B4
:1010A00031F0833771F0833509F057C021C0F80162
:1010B000808189830E5F1F4F44244394512C540137
:1010C00014C03801F2E06F0E711CF801A080B180ED
:1010D00026FF03C0652D70E002C06FEF7FEFC501F2
:1010E0002C8794D22C0183012C852F77222E16C0B9
:1010F0003801F2E06F0E711CF801A080B18026FF6C
:1011000003C0652D70E002C06FEF7FEFC5012C8733
:101110006BD22C012C852068222E830123FC19C060
:10112000832D90E048165906A0F4B70180E290E0C4
:1011300078D23A94F5CFF50127FC859127FE81916D
:101140005F01B70190E06DD231103A94F1E04F1A8F
:1011500051084114510479F7DEC0843611F0893604
:1011600031F5F80127FF07C0608171818281938189
:101170000C5F1F4F08C060817181882777FD8095C3
:10118000982F0E5F1F4F2F76B22E97FF09C09095B4
:101190008095709561957F4F8F4F9F4F2068B22E3D
:1011A0002AE030E0A4016FD2A82EA81843C08537EA
:1011B00029F42F7EB22E2AE030E025C0F22FF97FED
:1011C000BF2E8F36C1F018F4883579F0ADC0803766
:1011D00019F0883721F0A8C02F2F2061B22EB4FE5D
:1011E0000DC08B2D8460B82E09C024FF0AC09F2F2C
:1011F0009660B92E06C028E030E005C020E130E05E
:1012000002C020E132E0F801B7FE07C060817181C1
:10121000828193810C5F1F4F06C06081718180E0E5
:1012200090E00E5F1F4FA4012ED2A82EA818FB2D10
:10123000FF77BF2EB6FE0BC02B2D2E7FA51450F4CA
:10124000B4FE0AC0B2FC08C02B2D2E7E05C07A2C3D
:101250002B2D03C07A2C01C0752C24FF0DC0FE017C
:10126000EA0DF11D8081803311F4297E09C022FF2F
:1012700006C07394739404C0822F867809F0739427
:1012800023FD12C020FF06C05A2C731418F4530C0F
:101290005718732C731460F4B70180E290E02C8728
:1012A000C0D173942C85F6CF731410F4371801C095
:1012B000312C24FF11C0B70180E390E02C87B1D11D
:1012C0002C8522FF16C021FF03C088E590E002C0F4
:1012D00088E790E0B7010CC0822F867851F021FD9D
:1012E00002C080E201C08BE227FD8DE2B70190E0F1
:1012F00098D1A51430F4B70180E390E092D15A94CC
:10130000F8CFAA94F401EA0DF11D8081B70190E0B5
:1013100088D1A110F6CF332009F45DCEB70180E269
:1013200090E07FD13A94F7CFF7018681978102C090
:101330008FEF9FEF2C960FB6F894DEBF0FBECDBF98
:10134000DF91CF911F910F91FF90EF90DF90CF90A1
:10135000BF90AF909F908F907F906F905F904F90D5
:101360003F902F9008950F931F93CF93DF93869F05
:101370008001879F100D969F100D1124C8010DD07C
:10138000EC01009721F0A80160E070E038D1CE01B7
:10139000DF91CF911F910F910895CF93DF9382300A
:1013A000910510F482E090E0E091CB02F091CC0244
:1013B00020E030E0A0E0B0E0309739F14081518189
:1013C00048175907B8F04817590771F4828193817B
:1013D000109729F013969C938E9312972CC090939C
:1013E000CC028093CB0227C02115310531F0421782
:1013F000530718F0A901DB0101C0EF019A01BD01FB
:10140000DF010280F381E02DD7CF21153105F9F0FE
:10141000281B390B2430310580F48A819B816115AA
:10142000710521F0FB019383828304C09093CC0269
:101430008093CB02FE01329644C0FE01E20FF31FFF
:101440008193919322503109398328833AC02091A6
:10145000C9023091CA02232B41F42091020230913B
:1014600003023093CA022093C902209100023091F6
:1014700001022115310541F42DB73EB74091040218
:1014800050910502241B350BE091C902F091CA026C
:10149000E217F307A0F42E1B3F0B2817390778F04B
:1014A000AC014E5F5F4F2417350748F04E0F5F1FAA
:1014B0005093CA024093C9028193919302C0E0E025
:1014C000F0E0CF01DF91CF910895CF93DF930097A4
:1014D00009F487C0FC01329713821282C091CB02BB
:1014E000D091CC02209781F420813181280F391FBF
:1014F0008091C9029091CA028217930779F5F093FF
:10150000CA02E093C9026DC0DE0120E030E0AE17F0
:10151000BF0750F412964D915C9113979D014115B0
:10152000510509F1DA01F3CFB383A28340815181E0
:10153000840F951F8A179B0771F48D919C911197C9
:10154000840F951F02969183808312968D919C91B2
:101550001397938382832115310529F4F093CC02EC
:10156000E093CB023EC0D9011396FC93EE93129701
:101570004D915D91A40FB51FEA17FB0779F48081A7
:101580009181840F951F0296D90111969C938E9399
:101590008281938113969C938E931297E0E0F0E002
:1015A0008A819B81009719F0FE01EC01F9CFCE01F1
:1015B000029628813981820F931F2091C9023091B0
:1015C000CA022817390769F4309729F41092CC021F
:1015D0001092CB0202C013821282D093CA02C0932F
:1015E000C902DF91CF910895FC01059061507040D0
:1015F0000110D8F7809590958E0F9F1F0895DC01FC
:1016000001C06D9341505040E0F70895FC016150D6
:10161000704001900110D8F7809590958E0F9F1F14
:1016200008950F931F93CF93DF93182F092FEB018A
:101630008B8181FD03C08FEF9FEF20C082FF10C020
:101640004E815F812C813D81421753077CF4E881F4
:10165000F9819F012F5F3F4F39832883108306C094
:10166000E885F985812F1995892B29F72E813F81EE
:101670002F5F3F4F3F832E83812F902FDF91CF919C
:101680001F910F910895FA01AA27283051F12031B6
:1016900081F1E8946F936E7F6E5F7F4F8F4F9F4F06
:1016A000AF4FB1E03ED0B4E03CD0670F781F891F48
:1016B0009A1FA11D680F791F8A1F911DA11D6A0F16
:1016C000711D811D911DA11D20D009F468943F91C9
:1016D0002AE0269F11243019305D3193DEF6CF01C8
:1016E0000895462F4770405D4193B3E00FD0C9F78E
:1016F000F6CF462F4F70405D4A3318F0495D31FDFB
:101700004052419302D0A9F7EACFB4E0A69597954D
:10171000879577956795BA95C9F700976105710523
:1017200008959B01AC010A2E06945795479537956D
:101730002795BA95C9F7620F731F841F951FA01DC7
:061740000895F894FFCFAC
:101746000000CD022000640001000000000000003F
:1017560000F8456E636F64657220646174613A20B7
:1017660025640A004D435032353531206973204EC9
:101776004F5420696E206E6F726D616C206D6F64C0
:101786006520616674657220726573657421002830
:1017960045292063616E2E633A205472616E736D23
:1017A600697373696F6E206572726F7200284529BE
:1017B6002063616E2E633A20526563656976652003
:1017C6006572726F72004D43503235353120697340
:1017D600204E4F5420696E20636F6E66696775727E
:1017E6006174696F6E206D6F6465206166746572E1
:0817F600207265736574210087
:00000001FF
