:10000000C2C00000E0C00000DEC00000E3C200008B
:10001000DAC00000D8C00000D6C00000D4C0000084
:10002000D2C00000D0C00000CEC00000CCC0000094
:10003000CAC00000C8C00000C6C00000C4C00000A4
:10004000C2C00000C0C00000BEC00000BCC00000B4
:10005000BAC00000B8C00000B6C00000B4C00000C4
:10006000B2C00000B0C00000AEC00000ACC00000D4
:10007000AAC00000A8C00000A6C00000A4C00000E4
:10008000A2C00000A0C000009EC000009CC00000F4
:100090009AC0000098C0000096C0000010C5000083
:1000A00092C0000090C000008EC000008CC0000014
:1000B0008AC0000088C0000086C0000084C0000024
:1000C00082C0000080C000007EC000007CC0000034
:1000D0007AC0000078C0000076C0000074C0000044
:1000E00072C000007A05CC05CC05CC05CC05CC054A
:1000F000CC05CC057A05CC05CC05CC05CC05CC05CA
:10010000CC05CC057C05CC05CC05CC05CC05CC05B7
:10011000CC05CC05CC05CC05CC05CC05CC05CC0557
:10012000CC05CC057C05CC05CC05CC05CC05CC0597
:10013000CC05CC05CC05CC05CC05CC05CC05CC0537
:10014000CC05CC05C805CC05CC05CC05CC05CC052B
:10015000CC05CC05A505CC05CC05CC05CC05CC053E
:10016000CC05CC05CC05CC05CC05CC05CC05CC0507
:10017000CC05CC059905CC05CC05CC05CC05CC052A
:10018000CC05CC05B70511241FBECFEFD1E2DEBFF1
:10019000CDBF00E00CBF12E0A0E0B2E0E0E1F9E189
:1001A00000E00BBF02C007900D92AC3CB107D9F73D
:1001B00022E0ACECB2E001C01D92A13FB207E1F732
:1001C00003D00C94860C1CCFCF93DF93CDB7DEB752
:1001D00066970FB6F894DEBF0FBECDBF87E690E0FE
:1001E00003D503D133D212D480D318D431D2F82E10
:1001F00002E010E088248394712CCE010C965ED12D
:100200002C853D852130310559F4E9888F85B0D39F
:100210008E2D06D46B8970E080E090E0F4D541D05B
:1002200017D2982E8F1539F01A8309838B828C830D
:10023000CE010196F3D0BDD27C01A1D25C01B70101
:10024000882777FD8095982FE0D520E030E04FE7B4
:1002500053E48FD66B017C01B501882777FD80952B
:10026000982FD3D59B01AC01C701B60138D522D058
:100270006B017C01B82C20E030E0A90176D618167D
:100280000CF0B72C8B2D87D2C701B60190D5862FE5
:100290007BD28FE39CE90197F1F700C00000F92CB5
:1002A000ACCF6093D4027093D5028093D602909322
:1002B000D70208954F925F926F927F928F929F9292
:1002C000AF92BF92CF92DF92EF92FF92CF93DF93E4
:1002D0006B017C01C0910602D0910702688179818F
:1002E00080E090E090D520E034E244E75BE4F7D48E
:1002F0002B013C0119821882A70196016091D4025A
:100300007091D5028091D6029091D7027FD46B0173
:100310007C01A30192012DD62091CC023091CD0217
:100320004091CE025091CF0272D44B015C01609398
:10033000CC027093CD028093CE029093CF02209195
:10034000D0023091D1024091D2025091D302C70124
:10035000B6015CD4A3019201C2D42B013C01C0922E
:10036000D002D092D102E092D202F092D30220E0E9
:1003700030E040E05FE3C501B401FBD5A701960181
:1003800046D46B017C0120E030E0A901C301B20139
:10039000F0D59B01AC01C701B60139D4DF91CF91F3
:1003A000FF90EF90DF90CF90BF90AF909F908F9095
:1003B0007F906F905F904F900895EAE7F0E0808122
:1003C0008068808380818760808308958F718066D4
:1003D00080937C00EAE7F0E0808180648083808104
:1003E00086FDFDCF809179000895ABD140E060EEAD
:1003F0008FE08AD18EE049D1807E21F084E192E0C5
:100400007CC6089543E26FEF8BE27ED1E9E6F0E02F
:10041000808180628083EA9A789408950F931F9375
:10042000CF93DF93CDB7DEB7DC010DB71EB71296C1
:100430004C91129750E04B5F5F4F8DB79EB7841B76
:10044000950B0FB6F8949EBF0FBE8DBF6DB77EB7EC
:100450006F5F7F4F8D919C9111979695879596959B
:10046000879596958795EDB7FEB781838C91829598
:10047000880F807EFB0181831282138212968C91F9
:1004800012978483463051055CF01396359625E02B
:1004900030E08D9181932F5F3F4F24173507CCF3C8
:1004A00081E303D181E024D10FB6F8941EBF0FBEC3
:1004B0000DBFDF91CF911F910F9108958F929F9261
:1004C000AF92BF92CF92DF92EF92FF920F931F9362
:1004D000CF93DF93CDB7DEB72B970FB6F894DEBF7F
:1004E0000FBECDBF7C018091E4028823B1F181E68B
:1004F000CCD0A82E82E6C9D0829586958770B12C83
:10050000AA0CBB1CAA0CBB1CAA0CBB1CA82A85E607
:10051000BCD08F70882E99F08E010C5F1F4F680140
:10052000C80ED11C0F2EF6E69F2EF02D892DADD0D2
:10053000F80181938F019394EC15FD05B9F71092A2
:10054000E402BA82A9828B828BE0FE013196D70148
:1005500001900D928A95E1F708C08BE0E8E0F2E0A7
:10056000D70101900D928A95E1F7C7012B960FB63E
:10057000F894DEBF0FBECDBFDF91CF911F910F91D9
:10058000FF90EF90DF90CF90BF90AF909F908F90B3
:100590000895CF938DE279D0C82F82FF03C08FE3F7
:1005A00092E0ABD5C1FF03C08DE592E0A6D5CF9117
:1005B0000895CF938CE269D0C82F85FDEADFC0FF94
:1005C00003C081E08093E40240E06FEF8CE29CD0B6
:1005D000CF9108951F920F920FB60F9211240BB670
:1005E0000F922F933F934F935F936F937F938F93CC
:1005F0009F93AF93BF93EF93FF93DBDFFF91EF9157
:10060000BF91AF919F918F917F916F915F914F912A
:100610003F912F910F900BBE0F900FBE0F901F9028
:10062000189521C20895CF93DF9300D0CDB7DEB7E0
:1006300090E599831A828B8363E0CE0101961DD2E7
:100640000F900F900F90DF91CF910895B6CE08953F
:1006500080E0BCDEE9EDF2E020812093D802AAED33
:10066000B2E04C914083EBEDF2E0908130E0240F5A
:10067000311D290F311D9C938083280F311D81E08E
:10068000283C310508F080E00895CF93C82FF894F6
:10069000E6D183E0DED18C2FDCD180E0DAD1C82F27
:1006A000E0D178948C2FCF910895EF92FF920F9321
:1006B0001F93CF93DF93C82F7B018A01F894CFD18A
:1006C00082E0C7D18C2FC5D11016110644F4E70182
:1006D0000E0D1F1D8991BDD1C017D107D9F7C1D10A
:1006E0007894DF91CF911F910F91FF90EF90089533
:1006F000CF93C82FF894B3D18C2F87708068A9D17D
:10070000B0D17894CF9108951F93CF93DF93182F92
:10071000D62FC42FF894A3D185E09BD1812F99D1F6
:100720008D2F97D18C2F95D19CD17894DF91CF913B
:100730001F910895F89493D180EC8BD192D1789445
:100740000895CF93DF931F92CDB7DEB77BD1F2DF51
:100750008FE39CE90197F1F700C000008EE095DF80
:1007600089838981807E803829F086E792E0C5D42C
:1007700081E001C080E00F90DF91CF9108958091DA
:10078000E5029091E6020895803710F44CCF089569
:1007900080E749CF0895882331F0E2E0F1E08081DD
:1007A000826080830895E2E0F1E080818D7F808324
:1007B0000895CF93DF931F921F92CDB7DEB71A82B1
:1007C0001982E2E0F1E080818F7D80838081886002
:1007D00080832FEF89EF90E0215080409040E1F737
:1007E00000C000002091060189819A81822B9A83A2
:1007F00089838081877F80832FEF89EF90E021506C
:1008000080409040E1F700C00000209106018981FE
:100810009A81922B9A8389838081806280838981E7
:100820009A819195819591090F900F90DF91CF91C9
:10083000089580E0B0DF80E7F6DE2FEF8BE792E9E6
:10084000215080409040E1F700C0000080E0EBDEE6
:100850002FEF89EF90E0215080409040E1F700C0F9
:100860000000E2E0F1E080818F7B80832FEF89EF51
:1008700090E0215080409040E1F700C0000080816E
:100880008064808396DF9F938F9388EA92E09F93A2
:100890008F9322D481E07FDF80E7C5DE2FEF8BE7E7
:1008A00092E9215080409040E1F700C0000081DFD4
:1008B0008093E5029093E6029F938F9382EB92E000
:1008C0009F938F9309D42FEF83ED90E321508040C5
:1008D0009040E1F700C000008DB79EB708960FB6B4
:1008E000F8949EBF0FBE8DBF08959BDEE1E0F1E05E
:1008F00080818A67808310920701E2E0F1E08081C5
:100900008261808380818F7B80832FEF89EF90E0ED
:10091000215080409040E1F700C000008081806459
:10092000808387CF0895A0E8B0E022E02C93E1E82F
:10093000F0E028E120832C9120682C932081236013
:10094000208320E030E04AE753E413D330D27093A1
:10095000870060938600259A089520E030E04AE7FA
:1009600053E407D324D270938900609388000895DC
:10097000CF92DF92EF92FF92682F772767FD7095F5
:10098000872F972F42D220E030E048EC52E4A7D1E5
:1009900020E030E040E05FE3ECD220E030E040ECEB
:1009A0005FE335D16B017C0126E636E646E050E494
:1009B000DCD2181654F026E636E646E65FE3C701B9
:1009C000B60189D188235CF012C00F2EF6E6CF2E37
:1009D000DC2CF6E0EF2EF0E4FF2EF02D08C00F2EF9
:1009E000F6E6CF2EDC2CEC2CFFE3FF2EF02D8BEB6C
:1009F00092E09F938F9370D3C701B601AEDF0F9043
:100A00000F90FF90EF90DF90CF90089560E070E03E
:100A100080EA91E488DF81E0ABCF08956C9A089575
:100A20009091DC02891769F0882311F0749801C055
:100A3000749AEFE3FCE93197F1F700C0000080936E
:100A4000DC02089587E884B9289A8CB581658CBD4D
:100A500008958EBD0DB407FEFDCF8EB508952F9875
:100A600008952F9A08958CE08093B8008FEF8093BB
:100A7000BB0084E08093BC000895ECEBF0E02081A3
:100A800020FDFDCF6093DF02FC0120812093E00276
:100A900020FD0CC0623050F0DC011196E1EEF2E076
:100AA00081E09D9191938F5F8613FBCF1092DE02C0
:100AB00088EF8093130285EA8093BC0008951F920B
:100AC0000F920FB60F9211240BB60F922F933F93F4
:100AD0008F939F93AF93BF93EF93FF938091B90050
:100AE00090E0FC013897E135F10508F055C0EE586B
:100AF000FF4FA2C21092DD02E091DD028091DF0281
:100B0000E81770F481E08E0F8093DD02F0E0E05290
:100B1000FD4F80818093BB0085E88093BC0043C07B
:100B20008091DE0281608093DE0284E98093BC00C4
:100B30003AC0E091DD0281E08E0F8093DD0280916A
:100B4000BB00F0E0E052FD4F80832091DD0230E0F9
:100B50008091DF0290E001972817390724F485EC93
:100B60008093BC0020C085E88093BC001CC08091AD
:100B7000BB00E091DD02F0E0E052FD4F8083809108
:100B8000DE0281608093DE0284E98093BC000BC0AA
:100B900085EA8093BC0007C08091B900809313025E
:100BA00084E08093BC00FF91EF91BF91AF919F9142
:100BB0008F913F912F910F900BBE0F900FBE0F9012
:100BC0001F901895E0ECF0E0908195FFFDCF8093A9
:100BD000C60080E090E00895E0ECF0E0808188239A
:100BE000ECF78091C60008959093C5008093C400EF
:100BF00088E18093C1008EE08093C2006CEE75E0C6
:100C000082EE95E01FD280E090E008955058BB2717
:100C1000AA270ED070C161D130F066D120F031F436
:100C20009F3F11F41EF456C10EF4E095E7FB4CC152
:100C3000E92F72D180F3BA1762077307840795070B
:100C400018F071F49EF58AC10EF4E0950B2EBA2FC0
:100C5000A02D0B01B90190010C01CA01A0011124C2
:100C6000FF27591B99F0593F50F4503E68F11A166E
:100C7000F040A22F232F342F4427585FF3CF4695FF
:100C800037952795A795F0405395C9F77EF41F1621
:100C9000BA0B620B730B840BBAF09150A1F0FF0FEB
:100CA000BB1F661F771F881FC2F70EC0BA0F621FD7
:100CB000731F841F48F4879577956795B795F795C7
:100CC0009E3F08F0B3CF9395880F08F09927EE0F59
:100CD000979587950895D4D008F481E008950CD0B5
:100CE0000AC102D140F0F9D030F021F45F3F19F091
:100CF000EBC0511134C1EEC00FD198F39923C9F361
:100D00005523B1F3951B550BBB27AA276217730711
:100D1000840738F09F5F5F4F220F331F441FAA1FC5
:100D2000A9F333D00E2E3AF0E0E830D09150504085
:100D3000E695001CCAF729D0FE2F27D0660F771F33
:100D4000881FBB1F261737074807AB07B0E809F015
:100D5000BB0B802DBF01FF2793585F4F2AF09E3FAA
:100D6000510568F0B1C0FBC05F3FECF3983EDCF387
:100D7000869577956795B795F7959F5FC9F7880F23
:100D8000911D9695879597F90895E1E0660F771F75
:100D9000881FBB1F621773078407BA0720F0621B06
:100DA000730B840BBA0BEE1F88F7E0950895BCD047
:100DB00088F09F5790F0B92F9927B751A0F0D1F044
:100DC000660F771F881F991F1AF0BA95C9F712C0CE
:100DD000B13081F0C3D0B1E00895C0C0672F782F43
:100DE0008827B85F39F0B93FCCF38695779567953A
:100DF000B395D9F73EF490958095709561957F4FA6
:100E00008F4F9F4F0895E89409C097FB3EF490954B
:100E10008095709561957F4F8F4F9F4F9923A9F0D3
:100E2000F92F96E9BB279395F69587957795679562
:100E3000B795F111F8CFFAF4BB0F11F460FF1BC0A6
:100E40006F5F7F4F8F4F9F4F16C0882311F096E939
:100E500011C0772321F09EE8872F762F05C06623E7
:100E600071F096E8862F70E060E02AF09A95660FA0
:100E7000771F881FDAF7880F9695879597F9089559
:100E8000990F0008550FAA0BE0E8FEEF161617069B
:100E9000E807F907C0F012161306E407F50798F003
:100EA000621B730B840B950B39F40A2661F0232B1C
:100EB000242B252B21F408950A2609F4A140A69598
:100EC0008FEF811D811D089597F99F6780E870E07D
:100ED00060E008959FEF80EC089500240A941616B0
:100EE000170618060906089500240A941216130618
:100EF000140605060895092E0394000C11F48823A6
:100F000052F0BB0F40F4BF2B11F460FF04C06F5FC1
:100F10007F4F8F4F9F4F089557FD9058440F551F97
:100F200059F05F3F71F04795880F97FB991F61F06B
:100F30009F3F79F087950895121613061406551FE2
:100F4000F2CF4695F1DF08C0161617061806991F4E
:100F5000F1CF86957105610508940895E894BB2743
:100F600066277727CB0197F908958ADF08F48FEF7A
:100F700008950BD0C0CFB1DF28F0B6DF18F095236D
:100F800009F0A2CFA7CF1124EACFC6DFA0F3959F27
:100F9000D1F3950F50E0551F629FF001729FBB2760
:100FA000F00DB11D639FAA27F00DB11DAA1F649F0C
:100FB0006627B00DA11D661F829F2227B00DA11DBF
:100FC000621F739FB00DA11D621F839FA00D611D45
:100FD000221F749F3327A00D611D231F849F600D66
:100FE000211D822F762F6A2F11249F5750408AF09F
:100FF000E1F088234AF0EE0FFF1FBB1F661F771F2B
:10100000881F91505040A9F79E3F510570F05CCF6A
:10101000A6CF5F3FECF3983EDCF386957795679516
:10102000B795F795E7959F5FC1F7FE2B880F911D48
:101030009695879597F90895EE0FFF1F0590F49107
:10104000E02D19940F931F93CF93DF93EC018B0145
:10105000009731F46115710519F480E090E037C014
:101060006EE070E081E090E063D2FC010097A9F3AC
:1010700080E883830115110571F01387028781E8E9
:1010800083838091E7029091E802892B21F4F09309
:10109000E802E093E7022097C9F0D187C0878381F7
:1010A000826083838091E9029091EA02892B71F436
:1010B000F093EA02E093E9028091EB029091EC0256
:1010C000892B21F4F093EC02E093EB02CF01DF9146
:1010D000CF911F910F910895CF93DF93CDB7DEB7D6
:1010E000FE01369661917191AF018091E902909174
:1010F000EA0230D0DF91CF9108950F931F93CF93E1
:10110000DF93E091E902F091EA02238121FF1BC005
:10111000EC0100E010E089916091E9027091EA022F
:10112000DB011896ED91FC911997882331F0199500
:10113000892B89F30FEF1FEFEECF8AE01995892BEA
:1011400011F4C80102C08FEF9FEFDF91CF911F9183
:101150000F9108952F923F924F925F926F927F92DC
:101160008F929F92AF92BF92CF92DF92EF92FF92B7
:101170000F931F93CF93DF93CDB7DEB72C970FB6A6
:10118000F894DEBF0FBECDBF7C016B018A01FC016C
:1011900017821682838181FFB0C1CE0101964C0176
:1011A000F7019381F60193FD859193FF81916F0182
:1011B000882309F49EC1853239F493FD859193FF0C
:1011C00081916F01853221F4B70190E00FD3E8CF10
:1011D000512C312C20E02032A0F48B3269F030F415
:1011E000803259F0833269F420612CC08D3239F09D
:1011F000803339F4216026C02260246023C0286037
:1012000021C027FD27C030ED380F3A3078F426FF93
:1012100006C0FAE05F9E300D1124532E13C08AE001
:10122000389E300D1124332E20620CC08E3221F4F2
:1012300026FD5FC1206406C08C3611F4206802C010
:10124000883641F4F60193FD859193FF81916F01FA
:101250008111C1CF982F9F7D9554933028F40C5F56
:101260001F4FFFE3F9830DC0833631F0833771F0F0
:10127000833509F057C021C0F801808189830E5F52
:101280001F4F44244394512C540114C03801F2E000
:101290006F0E711CF801A080B18026FF03C0652D80
:1012A00070E002C06FEF7FEFC5012C8794D22C0154
:1012B00083012C852F77222E16C03801F2E06F0EA5
:1012C000711CF801A080B18026FF03C0652D70E07D
:1012D00002C06FEF7FEFC5012C876BD22C012C85EC
:1012E0002068222E830123FC19C0832D90E048162C
:1012F0005906A0F4B70180E290E078D23A94F5CF95
:10130000F50127FC859127FE81915F01B70190E0EF
:101310006DD231103A94F1E04F1A51084114510442
:1013200079F7DEC0843611F0893631F5F80127FFF0
:1013300007C060817181828193810C5F1F4F08C05B
:1013400060817181882777FD8095982F0E5F1F4FF0
:101350002F76B22E97FF09C0909580957095619574
:101360007F4F8F4F9F4F2068B22E2AE030E0A401BC
:101370006FD2A82EA81843C0853729F42F7EB22E2D
:101380002AE030E025C0F22FF97FBF2E8F36C1F062
:1013900018F4883579F0ADC0803719F0883721F01E
:1013A000A8C02F2F2061B22EB4FE0DC08B2D8460FB
:1013B000B82E09C024FF0AC09F2F9660B92E06C020
:1013C00028E030E005C020E130E002C020E132E05A
:1013D000F801B7FE07C060817181828193810C5F43
:1013E0001F4F06C06081718180E090E00E5F1F4F4B
:1013F000A4012ED2A82EA818FB2DFF77BF2EB6FE73
:101400000BC02B2D2E7FA51450F4B4FE0AC0B2FCE5
:1014100008C02B2D2E7E05C07A2C2B2D03C07A2CD4
:1014200001C0752C24FF0DC0FE01EA0DF11D808165
:10143000803311F4297E09C022FF06C0739473948F
:1014400004C0822F867809F0739423FD12C020FF18
:1014500006C05A2C731418F4530C5718732C7314B9
:1014600060F4B70180E290E02C87C0D173942C85A2
:10147000F6CF731410F4371801C0312C24FF11C0BB
:10148000B70180E390E02C87B1D12C8522FF16C0F4
:1014900021FF03C088E590E002C088E790E0B70133
:1014A0000CC0822F867851F021FD02C080E201C07D
:1014B0008BE227FD8DE2B70190E098D1A51430F4BE
:1014C000B70180E390E092D15A94F8CFAA94F40146
:1014D000EA0DF11D8081B70190E088D1A110F6CF0F
:1014E000332009F45DCEB70180E290E07FD13A94D9
:1014F000F7CFF7018681978102C08FEF9FEF2C967F
:101500000FB6F894DEBF0FBECDBFDF91CF911F9114
:101510000F91FF90EF90DF90CF90BF90AF909F9092
:101520008F907F906F905F904F903F902F90089595
:101530000F931F93CF93DF93869F8001879F100D9A
:10154000969F100D1124C8010DD0EC01009721F0D9
:10155000A80160E070E038D1CE01DF91CF911F91FA
:101560000F910895CF93DF938230910510F482E0BC
:1015700090E0E091EF02F091F00220E030E0A0E096
:10158000B0E0309739F14081518148175907B8F0E0
:101590004817590771F482819381109729F01396A7
:1015A0009C938E9312972CC09093F0028093EF023D
:1015B00027C02115310531F04217530718F0A90152
:1015C000DB0101C0EF019A01BD01DF010280F3815F
:1015D000E02DD7CF21153105F9F0281B390B243028
:1015E000310580F48A819B816115710521F0FB0131
:1015F0009383828304C09093F0028093EF02FE01F4
:10160000329644C0FE01E20FF31F81939193225062
:101610003109398328833AC02091ED023091EE02DE
:10162000232B41F420910202309103023093EE0209
:101630002093ED0220910002309101022115310525
:1016400041F42DB73EB74091040250910502241B8E
:10165000350BE091ED02F091EE02E217F307A0F4F2
:101660002E1B3F0B2817390778F0AC014E5F5F4FF8
:101670002417350748F04E0F5F1F5093EE0240933A
:10168000ED028193919302C0E0E0F0E0CF01DF91A1
:10169000CF910895CF93DF93009709F487C0FC01A1
:1016A000329713821282C091EF02D091F0022097FC
:1016B00081F420813181280F391F8091ED029091B2
:1016C000EE028217930779F5F093EE02E093ED02B4
:1016D0006DC0DE0120E030E0AE17BF0750F4129677
:1016E0004D915C9113979D014115510509F1DA0166
:1016F000F3CFB383A28340815181840F951F8A1752
:101700009B0771F48D919C911197840F951F029600
:101710009183808312968D919C91139793838283FA
:101720002115310529F4F093F002E093EF023EC059
:10173000D9011396FC93EE9312974D915D91A40FEE
:10174000B51FEA17FB0779F480819181840F951FFB
:101750000296D90111969C938E9382819381139660
:101760009C938E931297E0E0F0E08A819B81009732
:1017700019F0FE01EC01F9CFCE01029628813981E2
:10178000820F931F2091ED023091EE022817390746
:1017900069F4309729F41092F0021092EF0202C01F
:1017A00013821282D093EE02C093ED02DF91CF91AB
:1017B0000895FC010590615070400110D8F78095A4
:1017C00090958E0F9F1F0895DC0101C06D934150CD
:1017D0005040E0F70895FC01615070400190011005
:1017E000D8F7809590958E0F9F1F08950F931F93A4
:1017F000CF93DF93182F092FEB018B8181FD03C05D
:101800008FEF9FEF20C082FF10C04E815F812C813F
:101810003D81421753077CF4E881F9819F012F5FD6
:101820003F4F39832883108306C0E885F985812FCF
:101830001995892B29F72E813F812F5F3F4F3F83D9
:101840002E83812F902FDF91CF911F910F910895BB
:10185000FA01AA27283051F1203181F1E8946F93E1
:101860006E7F6E5F7F4F8F4F9F4FAF4FB1E03ED087
:10187000B4E03CD0670F781F891F9A1FA11D680F25
:10188000791F8A1F911DA11D6A0F711D811D911D58
:10189000A11D20D009F468943F912AE0269F1124CD
:1018A0003019305D3193DEF6CF010895462F477031
:1018B000405D4193B3E00FD0C9F7F6CF462F4F708C
:1018C000405D4A3318F0495D31FD4052419302D0EA
:1018D000A9F7EACFB4E0A695979587957795679590
:1018E000BA95C9F700976105710508959B01AC0190
:1018F0000A2E06945795479537952795BA95C9F7B7
:10190000620F731F841F951FA01D0895F894FFCFC9
:101910000000F102200084006400010000000000CB
:10192000000000F84D435032353531206973204EA8
:101930004F5420696E206E6F726D616C206D6F6404
:101940006520616674657220726573657421002874
:1019500045292063616E2E633A205472616E736D67
:10196000697373696F6E206572726F720028452902
:101970002063616E2E633A20526563656976652047
:101980006572726F72004D43503235353120697384
:10199000204E4F5420696E20636F6E6669677572C2
:1019A0006174696F6E206D6F646520616674657225
:1019B00020726573657421005A65726F3A20256440
:1019C0000A004D61783A2025640A0050756C7365F1
:0C19D0002077696474682025640A000018
:00000001FF
