:1000000071C000008EC000008CC00000CEC1000096
:1000100088C0000086C0000084C0000082C00000CC
:1000200080C000007EC000007CC000007AC00000DC
:1000300078C0000076C0000074C0000072C00000EC
:1000400070C000006EC000006CC000006AC00000FC
:1000500068C0000066C0000064C0000062C000000C
:1000600060C000005EC000005CC000005AC000001C
:1000700058C0000056C0000054C0000052C000002C
:1000800050C000004EC000004CC000004AC000003C
:1000900048C0000046C0000044C0000042C000004C
:1000A00040C000003EC000003CC000003AC000005C
:1000B00038C0000036C0000034C0000032C000006C
:1000C00030C000002EC000002CC000002AC000007C
:1000D00028C0000026C0000024C0000022C000008C
:1000E00020C0000011241FBECFEFD1E2DEBFCDBF84
:1000F00000E00CBF12E0A0E0B2E0E0E7FEE000E0CC
:100100000BBF02C007900D92AE3AB107D9F722E0BB
:10011000AEEAB2E001C01D92AF3BB207E1F702D0F8
:10012000A5C66ECFCF93DF93CDB7DEB766970FB678
:10013000F894DEBF0FBECDBF87E690E0B0D24AD0C4
:1001400073D1F6D184E602D287E092E01AD52FEF80
:1001500087EA91E6215080409040E1F700C000001E
:10016000F7D102E010E0DD24D394CE010C969BD0B1
:100170008C859D85019719F48F858195F7D156D18E
:10018000F82E8E1539F01A8309838C83DB82CE0119
:10019000019639D08FE99FE00197F1F700C0000088
:1001A000EF2CE3CFEAE7F0E08081806880838081F4
:1001B0008760808308958F71806680937C00EAE772
:1001C000F0E0808180648083808186FDFDCF809116
:1001D000790008958FD140E060EE8FE06ED18EE01F
:1001E0002DD1807E21F083E192E0CBC4089543E2DB
:1001F0006FEF8BE262D1E9E6F0E08081806280837C
:10020000EA9A789408950F931F93CF93DF93CDB715
:10021000DEB7DC010DB71EB712964C91129750E075
:100220004B5F5F4F8DB79EB7841B950B0FB6F8944D
:100230009EBF0FBE8DBF6DB77EB76F5F7F4F8D9135
:100240009C91119796958795969587959695879504
:10025000EDB7FEB781838C918295880F807EFB017C
:1002600081831282138212968C9112978483463076
:1002700051055CF01396359625E030E08D91819321
:100280002F5F3F4F24173507CCF381E3E7D081E0A0
:1002900008D10FB6F8941EBF0FBE0DBFDF91CF91EE
:1002A0001F910F9108958F929F92AF92BF92CF921C
:1002B000DF92EF92FF920F931F93CF93DF93CDB70F
:1002C000DEB72B970FB6F894DEBF0FBECDBF6C0123
:1002D00081E08093B40281E6B1D0A82E82E6AED050
:1002E000829586958770B12CAA0CBB1CAA0CBB1CEE
:1002F000AA0CBB1CA82A85E6A1D08F70882E99F085
:100300008E010C5F1F4F7801E80EF11C0F2EF6E6F0
:100310009F2EF02D892D92D0F80181938F01939417
:10032000EE15FF05B9F71092B402BA82A9828B824A
:100330008BE0FE013196D60101900D928A95E1F78E
:10034000C6012B960FB6F894DEBF0FBECDBFDF916E
:10035000CF911F910F91FF90EF90DF90CF90BF90C2
:10036000AF909F908F900895CF938DE267D0C82F64
:1003700082FF03C08EE392E004D4C1FF03C08CE58A
:1003800092E0FFD3CF910895CF938CE257D0C82F3E
:1003900085FDEADFC0FF03C081E08093B40240E046
:1003A0006FEF8CE28AD0CF9108951F920F920FB613
:1003B0000F9211240BB60F922F933F934F935F939D
:1003C0006F937F938F939F93AF93BF93EF93FF931D
:1003D000DBDFFF91EF91BF91AF919F918F917F9163
:1003E0006F915F914F913F912F910F900BBE0F90A6
:1003F0000FBE0F901F90189511C10895CF93DF93F2
:1004000000D0CDB7DEB790E599831A828B8363E085
:10041000CE0101960DD185E792E0B3D30F900F90F6
:100420000F90DF91CF910895BDCE089580E0C3DE97
:1004300091E08F3708F090E0892F0895CF93C82F6F
:10044000F894E8D083E0E0D08C2FDED080E0DCD0E0
:10045000C82FE2D078948C2FCF910895EF92FF921D
:100460000F931F93CF93DF93C82F7B018A01F894DA
:10047000D1D082E0C9D08C2FC7D01016110644F419
:10048000E7010E0D1F1D8991BFD0C017D107D9F705
:10049000C3D07894DF91CF911F910F91FF90EF908F
:1004A0000895CF93C82FF894B5D08C2F87708068AB
:1004B000ABD0B2D07894CF9108951F93CF93DF93B0
:1004C000182FD62FC42FF894A5D085E09DD0812F6A
:1004D0009BD08D2F99D08C2F97D09ED07894DF9180
:1004E000CF911F910895F89495D080EC8DD094D041
:1004F00078940895CF93DF931F92CDB7DEB77DD068
:10050000F2DF8FE39CE90197F1F700C000008EE075
:1005100095DF89838981807E803829F08CE792E09D
:1005200030D381E001C080E00F90DF91CF9108953A
:1005300063DFE1E0F1E080818A678083E2E0F1E05F
:1005400080818261808380E059CF089557CF0895DC
:1005500080E054CF089520E030E04AE753E464D2CD
:1005600081D170938900609388000895CF92DF92C3
:10057000EF92FF92682F772767FD7095872F972F4F
:100580009FD120E030E048EC52E404D120E030E09C
:1005900040E05FE349D220E030E040EC5FE392D0FE
:1005A0006B017C0126E636E646E050E439D21816A7
:1005B00054F026E636E646E65FE3C701B601E6D02C
:1005C00088235CF012C00F2EF6E6CF2EDC2CF6E06E
:1005D000EF2EF0E4FF2EF02D08C00F2EF6E6CF2E02
:1005E000DC2CEC2CFFE3FF2EF02DC701B601B3DFAE
:1005F000FF90EF90DF90CF90089587E884B9289A14
:100600008CB581658CBD08958EBD0DB407FEFDCF00
:100610008EB508952F9808952F9A08958CE08093B1
:10062000B8008FEF8093BB0084E08093BC000895F6
:10063000ECEBF0E0208120FDFDCF6093AF02FC01E8
:1006400020812093B00220FD0CC0623050F0DC010C
:100650001196E1EBF2E081E09D9191938F5F86131B
:10066000FBCF1092AE0288EF8093060285E880935C
:10067000BC0085E792E085C20895E0ECF0E090814F
:1006800095FFFDCF8093C60080E090E00895E0ECF8
:10069000F0E080818823ECF78091C6000895909364
:1006A000C5008093C40088E18093C1008EE08093F0
:1006B000C20067E473E08DE393E019D280E090E03C
:1006C00008955058BB27AA270ED070C161D130F0D1
:1006D00066D120F031F49F3F11F41EF456C10EF4A0
:1006E000E095E7FB4CC1E92F72D180F3BA1762079E
:1006F00073078407950718F071F49EF58AC10EF40C
:10070000E0950B2EBA2FA02D0B01B90190010C0121
:10071000CA01A0011124FF27591B99F0593F50F439
:10072000503E68F11A16F040A22F232F342F442791
:10073000585FF3CF469537952795A795F040539589
:10074000C9F77EF41F16BA0B620B730B840BBAF059
:100750009150A1F0FF0FBB1F661F771F881FC2F7C4
:100760000EC0BA0F621F731F841F48F487957795D8
:100770006795B795F7959E3F08F0B3CF9395880F8F
:1007800008F09927EE0F979587950895D4D008F42F
:1007900081E008950CD00AC102D140F0F9D030F0C8
:1007A00021F45F3F19F0EBC0511134C1EEC00FD1FD
:1007B00098F39923C9F35523B1F3951B550BBB2728
:1007C000AA2762177307840738F09F5F5F4F220FD5
:1007D000331F441FAA1FA9F333D00E2E3AF0E0E8CE
:1007E00030D091505040E695001CCAF729D0FE2F1A
:1007F00027D0660F771F881FBB1F261737074807AC
:10080000AB07B0E809F0BB0B802DBF01FF27935861
:100810005F4F2AF09E3F510568F0B1C0FBC05F3FBB
:10082000ECF3983EDCF3869577956795B795F79549
:100830009F5FC9F7880F911D9695879597F9089541
:10084000E1E0660F771F881FBB1F621773078407DD
:10085000BA0720F0621B730B840BBA0BEE1F88F7EC
:10086000E0950895BCD088F09F5790F0B92F992754
:10087000B751A0F0D1F0660F771F881F991F1AF0AB
:10088000BA95C9F712C0B13081F0C3D0B1E0089574
:10089000C0C0672F782F8827B85F39F0B93FCCF3F5
:1008A000869577956795B395D9F73EF490958095A1
:1008B000709561957F4F8F4F9F4F0895E89409C0C1
:1008C00097FB3EF490958095709561957F4F8F4F83
:1008D0009F4F9923A9F0F92F96E9BB279395F69599
:1008E000879577956795B795F111F8CFFAF4BB0F17
:1008F00011F460FF1BC06F5F7F4F8F4F9F4F16C07B
:10090000882311F096E911C0772321F09EE8872F04
:10091000762F05C0662371F096E8862F70E060E0C0
:100920002AF09A95660F771F881FDAF7880F969539
:10093000879597F90895990F0008550FAA0BE0E8DD
:10094000FEEF16161706E807F907C0F01216130691
:10095000E407F50798F0621B730B840B950B39F4D1
:100960000A2661F0232B242B252B21F408950A2637
:1009700009F4A140A6958FEF811D811D089597F977
:100980009F6780E870E060E008959FEF80EC089535
:1009900000240A941616170618060906089500245E
:1009A0000A9412161306140605060895092E0394D8
:1009B000000C11F4882352F0BB0F40F4BF2B11F44C
:1009C00060FF04C06F5F7F4F8F4F9F4F089557FDAB
:1009D0009058440F551F59F05F3F71F04795880FAD
:1009E00097FB991F61F09F3F79F087950895121644
:1009F00013061406551FF2CF4695F1DF08C01616F0
:100A000017061806991FF1CF8695710561050894A0
:100A10000895E894BB2766277727CB0197F90895B7
:100A20008ADF08F48FEF08950BD0C0CFB1DF28F034
:100A3000B6DF18F0952309F0A2CFA7CF1124EACF93
:100A4000C6DFA0F3959FD1F3950F50E0551F629F2D
:100A5000F001729FBB27F00DB11D639FAA27F00D17
:100A6000B11DAA1F649F6627B00DA11D661F829F3E
:100A70002227B00DA11D621F739FB00DA11D621F23
:100A8000839FA00D611D221F749F3327A00D611D40
:100A9000231F849F600D211D822F762F6A2F112422
:100AA0009F5750408AF0E1F088234AF0EE0FFF1F75
:100AB000BB1F661F771F881F91505040A9F79E3FAC
:100AC000510570F05CCFA6CF5F3FECF3983EDCF3AE
:100AD000869577956795B795F795E7959F5FC1F7E9
:100AE000FE2B880F911D9695879597F908950F9382
:100AF0001F93CF93DF93EC018B01009731F46115C5
:100B0000710519F480E090E037C06EE070E081E09C
:100B100090E064D0FC010097A9F380E8838301157D
:100B2000110571F01387028781E883838091B502F4
:100B30009091B602892B21F4F093B602E093B502AE
:100B40002097C9F0D187C087838182608383809199
:100B5000B7029091B802892B71F4F093B802E09338
:100B6000B7028091B9029091BA02892B21F4F093D7
:100B7000BA02E093B902CF01DF91CF911F910F919B
:100B800008950F931F93CF93DF93E091B702F091F5
:100B9000B802238121FF1BC0EC0100E010E0899125
:100BA0006091B7027091B802DB011896ED91FC914B
:100BB0001997882331F01995892B89F30FEF1FEFCF
:100BC000EECF8AE01995892B11F4C80102C08FEF8E
:100BD0009FEFDF91CF911F910F9108950F931F9376
:100BE000CF93DF93869F8001879F100D969F100DF6
:100BF0001124C8010DD0EC01009721F0A80160E09C
:100C000070E02DD1CE01DF91CF911F910F9108950A
:100C1000CF93DF938230910510F482E090E0E09171
:100C2000BD02F091BE0220E030E0A0E0B0E03097DD
:100C300039F14081518148175907B8F048175907D1
:100C400071F482819381109729F013969C938E936F
:100C500012972CC09093BE028093BD0227C021152D
:100C6000310531F04217530718F0A901DB0101C02B
:100C7000EF019A01BD01DF010280F381E02DD7CFA2
:100C800021153105F9F0281B390B2430310580F48A
:100C90008A819B816115710521F0FB019383828319
:100CA00004C09093BE028093BD02FE01329644C000
:100CB000FE01E20FF31F8193919322503109398392
:100CC00028833AC02091BB023091BC02232B41F40F
:100CD00020910202309103023093BC022093BB02A8
:100CE00020910002309101022115310541F42DB708
:100CF0003EB74091040250910502241B350BE09150
:100D0000BB02F091BC02E217F307A0F42E1B3F0BCD
:100D10002817390778F0AC014E5F5F4F241735076D
:100D200048F04E0F5F1F5093BC024093BB0281936B
:100D3000919302C0E0E0F0E0CF01DF91CF91089500
:100D4000CF93DF93009709F487C0FC013297138299
:100D50001282C091BD02D091BE02209781F4208101
:100D60003181280F391F8091BB029091BC028217FC
:100D7000930779F5F093BC02E093BB026DC0DE01EE
:100D800020E030E0AE17BF0750F412964D915C9111
:100D900013979D014115510509F1DA01F3CFB38392
:100DA000A28340815181840F951F8A179B0771F49C
:100DB0008D919C911197840F951F0296918380834A
:100DC00012968D919C9113979383828321153105FF
:100DD00029F4F093BE02E093BD023EC0D901139600
:100DE000FC93EE9312974D915D91A40FB51FEA17F6
:100DF000FB0779F480819181840F951F0296D901B8
:100E000011969C938E938281938113969C938E93DB
:100E10001297E0E0F0E08A819B81009719F0FE01D3
:100E2000EC01F9CFCE01029628813981820F931F00
:100E30002091BB023091BC022817390769F4309722
:100E400029F41092BE021092BD0202C013821282D7
:100E5000D093BC02C093BB02DF91CF910895DC0117
:100E600001C06D9341505040E0F70895F894FFCFD2
:100E70000000BF022000F848656C6C6F20776F722D
:100E80006C64004D435032353531206973204E4F2C
:100E90005420696E206E6F726D616C206D6F646599
:100EA000206166746572207265736574210028453F
:100EB000292063616E2E633A205472616E736D69EE
:100EC0007373696F6E206572726F720028452920F6
:100ED00063616E2E633A20526563656976652065AD
:100EE00072726F7200484F4C4D4553004D43503263
:100EF000353531206973204E4F5420696E20636F61
:100F00006E66696775726174696F6E206D6F646576
:0E0F100020616674657220726573657421003D
:00000001FF
