:1000000071C000008EC000008CC0000071C10000F3
:1000100088C0000086C0000084C0000082C00000CC
:1000200080C000007EC000007CC000007AC00000DC
:1000300078C0000076C0000074C0000072C00000EC
:1000400070C000006EC000006CC000006AC00000FC
:1000500068C0000066C0000064C0000062C000000C
:1000600060C000005EC000005CC000005AC000001C
:1000700058C0000056C0000054C0000052C000002C
:1000800050C000004EC000004CC000004AC000003C
:1000900048C0000046C0000044C0000042C000004C
:1000A00040C000003EC000003CC000003AC000005C
:1000B00038C0000036C0000034C0000032C000006C
:1000C00030C000002EC000002CC000002AC000007C
:1000D00028C0000026C0000024C0000022C000008C
:1000E00020C0000011241FBECFEFD1E2DEBFCDBF84
:1000F00000E00CBF13E0A0E0B2E0ECEFFCE000E0B9
:100100000BBF02C007900D92A030B107D9F723E0D2
:10011000A0E0B3E001C01D92AB30B207E1F702D01E
:10012000EBC56ECFCF93DF93CDB7DEB72B970FB66E
:10013000F894DEBF0FBECDBF87E690E067D138D020
:1001400086E092E0D0D10F2EF4E2EF2EF2E0FF2E07
:10015000F02D0CE212E02FEF83ED90E32150804070
:100160009040E1F700C00000CE0101963AD083E153
:1001700092E0B9D18A818F9389818F93FF92EF9218
:10018000A1D12D81822F992787FD90959F932F9341
:100190002C81822F992787FD90959F932F931F93F2
:1001A0000F9390D10FB6F894DEBF0FBECDBFD3CF63
:1001B000EDD040E060EE8FE0D0D08EE0C0D0807E09
:1001C00021F08AE392E08FC1089543E26FEF8BE262
:1001D000C4D0E9E6F0E0808180628083EA9A789476
:1001E00008958F929F92AF92BF92CF92DF92EF923B
:1001F000FF920F931F93CF93DF93CDB7DEB72B976B
:100200000FB6F894DEBF0FBECDBF6C018091000326
:10021000882359F181E693D0A82E82E690D082956A
:1002200086958770B12CAA0CBB1CAA0CBB1CAA0C0F
:10023000BB1CA82A85E683D08F70882E99F08E018A
:100240000C5F1F4F7801E80EF11C0F2EF6E69F2E73
:10025000F02D892D74D0F80181938F019394EE15C0
:10026000FF05B9F71092000303C085E692E03BD189
:10027000BA82A9828B828BE0FE013196D601019071
:100280000D928A95E1F7C6012B960FB6F894DEBF62
:100290000FBECDBFDF91CF911F910F91FF90EF90D7
:1002A000DF90CF90BF90AF909F908F900895CF93A5
:1002B0008DE245D0C82F82FF03C086E992E013D1BA
:1002C000C1FF03C084EB92E00ED1CF910895CF938C
:1002D0008CE235D0C82F85FDEADFC0FF03C081E086
:1002E0008093000340E06FEF8CE237D0CF91089508
:1002F0001F920F920FB60F9211240BB60F922F93ED
:100300003F934F935F936F937F938F939F93AF939D
:10031000BF93EF93FF93DBDFFF91EF91BF91AF911D
:100320009F918F917F916F915F914F913F912F910D
:100330000F900BBE0F900FBE0F901F901895CF938C
:10034000C82F4ED083E046D08C2F44D080E042D0DE
:10035000C82F48D08C2FCF9108951F93CF93DF9350
:10036000182FD62FC42F3CD085E034D0812F32D027
:100370008D2F30D08C2F2ED035D0DF91CF911F9183
:1003800008952ED080EC26D02DC00895CF93DF9312
:100390001F92CDB7DEB718D0F4DF83EC99E0019758
:1003A000F1F700C000008EE0CADF89838981807E7A
:1003B000803829F08DEC92E096D081E001C080E099
:1003C0000F90DF91CF91089587E884B98CB581654E
:1003D0008CBD08958EBD0DB407FEFDCF8EB508957A
:1003E0002F9808952F9A0895E0ECF0E0908195FF02
:1003F000FDCF8093C60080E090E00895E0ECF0E04F
:1004000080818823ECF78091C60008959093C50001
:100410008093C40088E18093C1008EE08093C20085
:100420006EEF71E084EF91E003D080E090E00895FA
:100430000F931F93CF93DF93EC018B01009731F45F
:100440006115710519F480E090E037C06EE070E04E
:1004500081E090E063D2FC010097A9F380E88383F8
:100460000115110571F01387028781E8838380915C
:10047000010390910203892B21F4F0930203E0938E
:1004800001032097C9F0D187C0878381826083836D
:100490008091030390910403892B71F4F09304037A
:1004A000E09303038091050390910603892B21F4C7
:1004B000F0930603E0930503CF01DF91CF911F91E5
:1004C0000F910895CF93DF93CDB7DEB7FE01369637
:1004D00061917191AF01809103039091040330D039
:1004E000DF91CF9108950F931F93CF93DF93E09106
:1004F0000303F0910403238121FF1BC0EC0100E002
:1005000010E089916091030370910403DB01189658
:10051000ED91FC911997882331F01995892B89F376
:100520000FEF1FEFEECF8AE01995892B11F4C80168
:1005300002C08FEF9FEFDF91CF911F910F91089530
:100540002F923F924F925F926F927F928F929F92E3
:10055000AF92BF92CF92DF92EF92FF920F931F93D1
:10056000CF93DF93CDB7DEB72C970FB6F894DEBFED
:100570000FBECDBF7C016B018A01FC011782168280
:10058000838181FFB0C1CE0101964C01F7019381B7
:10059000F60193FD859193FF81916F01882309F402
:1005A0009EC1853239F493FD859193FF81916F014E
:1005B000853221F4B70190E00FD3E8CF512C312CD4
:1005C00020E02032A0F48B3269F030F4803259F010
:1005D000833269F420612CC08D3239F0803339F4D4
:1005E000216026C02260246023C0286021C027FD2E
:1005F00027C030ED380F3A3078F426FF06C0FAE015
:100600005F9E300D1124532E13C08AE0389E300DAA
:100610001124332E20620CC08E3221F426FD5FC1DE
:10062000206406C08C3611F4206802C0883641F47C
:10063000F60193FD859193FF81916F018111C1CFE7
:10064000982F9F7D9554933028F40C5F1F4FFFE344
:10065000F9830DC0833631F0833771F0833509F0AB
:1006600057C021C0F801808189830E5F1F4F442449
:100670004394512C540114C03801F2E06F0E711CE8
:10068000F801A080B18026FF03C0652D70E002C094
:100690006FEF7FEFC5012C8794D22C0183012C854D
:1006A0002F77222E16C03801F2E06F0E711CF80170
:1006B000A080B18026FF03C0652D70E002C06FEFFF
:1006C0007FEFC5012C876BD22C012C852068222E50
:1006D000830123FC19C0832D90E048165906A0F42D
:1006E000B70180E290E078D23A94F5CFF50127FC8B
:1006F000859127FE81915F01B70190E06DD23110A5
:100700003A94F1E04F1A51084114510479F7DEC0D0
:10071000843611F0893631F5F80127FF07C0608172
:100720007181828193810C5F1F4F08C0608171814C
:10073000882777FD8095982F0E5F1F4F2F76B22E5A
:1007400097FF09C090958095709561957F4F8F4F69
:100750009F4F2068B22E2AE030E0A4016FD2A82E6D
:10076000A81843C0853729F42F7EB22E2AE030E046
:1007700025C0F22FF97FBF2E8F36C1F018F48835CF
:1007800079F0ADC0803719F0883721F0A8C02F2F3D
:100790002061B22EB4FE0DC08B2D8460B82E09C02E
:1007A00024FF0AC09F2F9660B92E06C028E030E0D3
:1007B00005C020E130E002C020E132E0F801B7FEE0
:1007C00007C060817181828193810C5F1F4F06C0D9
:1007D0006081718180E090E00E5F1F4FA4012ED2F6
:1007E000A82EA818FB2DFF77BF2EB6FE0BC02B2D11
:1007F0002E7FA51450F4B4FE0AC0B2FC08C02B2D05
:100800002E7E05C07A2C2B2D03C07A2C01C0752CAE
:1008100024FF0DC0FE01EA0DF11D8081803311F42B
:10082000297E09C022FF06C07394739404C0822FEE
:10083000867809F0739423FD12C020FF06C05A2C5D
:10084000731418F4530C5718732C731460F4B70115
:1008500080E290E02C87C0D173942C85F6CF73147E
:1008600010F4371801C0312C24FF11C0B70180E308
:1008700090E02C87B1D12C8522FF16C021FF03C048
:1008800088E590E002C088E790E0B7010CC0822FB5
:10089000867851F021FD02C080E201C08BE227FD85
:1008A0008DE2B70190E098D1A51430F4B70180E350
:1008B00090E092D15A94F8CFAA94F401EA0DF11D78
:1008C0008081B70190E088D1A110F6CF332009F4E0
:1008D0005DCEB70180E290E07FD13A94F7CFF70187
:1008E0008681978102C08FEF9FEF2C960FB6F89408
:1008F000DEBF0FBECDBFDF91CF911F910F91FF9053
:10090000EF90DF90CF90BF90AF909F908F907F90AF
:100910006F905F904F903F902F9008950F931F938B
:10092000CF93DF93869F8001879F100D969F100DB8
:100930001124C8010DD0EC01009721F0A80160E05E
:1009400070E038D1CE01DF91CF911F910F910895C2
:10095000CF93DF938230910510F482E090E0E09134
:100960000903F0910A0320E030E0A0E0B0E0309706
:1009700039F14081518148175907B8F04817590794
:1009800071F482819381109729F013969C938E9332
:1009900012972CC090930A038093090327C0211556
:1009A000310531F04217530718F0A901DB0101C0EE
:1009B000EF019A01BD01DF010280F381E02DD7CF65
:1009C00021153105F9F0281B390B2430310580F44D
:1009D0008A819B816115710521F0FB0193838283DC
:1009E00004C090930A0380930903FE01329644C029
:1009F000FE01E20FF31F8193919322503109398355
:100A000028833AC02091070330910803232B41F437
:100A100020910202309103023093080320930703D0
:100A200020910002309101022115310541F42DB7CA
:100A30003EB74091040250910502241B350BE09112
:100A40000703F0910803E217F307A0F42E1B3F0BF6
:100A50002817390778F0AC014E5F5F4F2417350730
:100A600048F04E0F5F1F5093080340930703819394
:100A7000919302C0E0E0F0E0CF01DF91CF910895C3
:100A8000CF93DF93009709F487C0FC01329713825C
:100A90001282C0910903D0910A03209781F420812A
:100AA0003181280F391F8091070390910803821725
:100AB000930779F5F0930803E09307036DC0DE0117
:100AC00020E030E0AE17BF0750F412964D915C91D4
:100AD00013979D014115510509F1DA01F3CFB38355
:100AE000A28340815181840F951F8A179B0771F45F
:100AF0008D919C911197840F951F0296918380830D
:100B000012968D919C9113979383828321153105C1
:100B100029F4F0930A03E09309033EC0D901139628
:100B2000FC93EE9312974D915D91A40FB51FEA17B8
:100B3000FB0779F480819181840F951F0296D9017A
:100B400011969C938E938281938113969C938E939E
:100B50001297E0E0F0E08A819B81009719F0FE0196
:100B6000EC01F9CFCE01029628813981820F931FC3
:100B700020910703309108032817390769F430974B
:100B800029F410920A031092090302C01382128200
:100B9000D0930803C0930703DF91CF910895FC0120
:100BA0000590615070400110D8F7809590958E0F98
:100BB0009F1F0895DC0101C06D9341505040E0F744
:100BC0000895FC016150704001900110D8F78095A4
:100BD00090958E0F9F1F08950F931F93CF93DF93D0
:100BE000182F092FEB018B8181FD03C08FEF9FEF41
:100BF00020C082FF10C04E815F812C813D81421751
:100C000053077CF4E881F9819F012F5F3F4F3983BF
:100C10002883108306C0E885F985812F1995892BD3
:100C200029F72E813F812F5F3F4F3F832E83812FF6
:100C3000902FDF91CF911F910F910895FA01AA276C
:100C4000283051F1203181F1E8946F936E7F6E5F0F
:100C50007F4F8F4F9F4FAF4FB1E03ED0B4E03CD0BD
:100C6000670F781F891F9A1FA11D680F791F8A1FA0
:100C7000911DA11D6A0F711D811D911DA11D20D007
:100C800009F468943F912AE0269F11243019305DC1
:100C90003193DEF6CF010895462F4770405D4193B2
:100CA000B3E00FD0C9F7F6CF462F4F70405D4A33FF
:100CB00018F0495D31FD4052419302D0A9F7EACFC7
:100CC000B4E0A6959795879577956795BA95C9F7F6
:100CD00000976105710508959B01AC010A2E0694E9
:100CE0005795479537952795BA95C9F7620F731FA2
:0C0CF000841F951FA01D0895F894FFCFED
:100CFC0000000B03200048656C6C6F20776F726CE2
:100D0C006421004D65737361676520726563656965
:100D1C007665640049443A2025640A00783A202517
:100D2C006420793A2025640A0A004D435032353547
:100D3C0031206973204E4F5420696E206E6F726D96
:100D4C00616C206D6F6465206166746572207265DC
:100D5C0073657421002857292063616E2E633A2035
:100D6C0042756666657220656D7074792E205265C9
:100D7C007475726E696E6720656D707479206D651F
:100D8C007373616765002845292063616E2E633A91
:100D9C00205472616E736D697373696F6E20657226
:100DAC00726F72002845292063616E2E633A2052BF
:100DBC00656365697665206572726F72004D43508C
:100DCC0032353531206973204E4F5420696E2063C3
:100DDC006F6E66696775726174696F6E206D6F6492
:100DEC0065206166746572207265736574210000FC
:00000001FF
