:10000000C2C00000E0C00000DEC0000018C3000055
:10001000DAC00000D8C0000091C60000D4C00000C3
:10002000D2C00000D0C00000CEC00000CCC0000094
:10003000CAC00000C8C00000C6C00000C4C00000A4
:10004000C2C00000C0C00000BEC00000BCC00000B4
:10005000BAC00000B8C00000B6C00000B4C00000C4
:10006000B2C00000B0C00000AEC00000ACC00000D4
:10007000AAC00000A8C00000A6C00000A4C00000E4
:10008000A2C00000A0C000009EC000000EC700007B
:100090009AC0000098C0000096C0000041C5000052
:1000A00092C0000090C000008EC000008CC0000014
:1000B0008AC0000088C0000086C0000084C0000024
:1000C00082C0000080C000007EC000007CC0000034
:1000D0007AC0000078C0000076C0000074C0000044
:1000E00072C00000AB05FD05FD05FD05FD05FD0524
:1000F000FD05FD05AB05FD05FD05FD05FD05FD0542
:10010000FD05FD05AD05FD05FD05FD05FD05FD052F
:10011000FD05FD05FD05FD05FD05FD05FD05FD05CF
:10012000FD05FD05AD05FD05FD05FD05FD05FD050F
:10013000FD05FD05FD05FD05FD05FD05FD05FD05AF
:10014000FD05FD05F905FD05FD05FD05FD05FD05A3
:10015000FD05FD05D605FD05FD05FD05FD05FD05B6
:10016000FD05FD05FD05FD05FD05FD05FD05FD057F
:10017000FD05FD05CA05FD05FD05FD05FD05FD05A2
:10018000FD05FD05E80511241FBECFEFD1E2DEBF5E
:10019000CDBF00E00CBF12E0A0E0B2E0EEEEFBE16C
:1001A00000E00BBF02C007900D92AE3DB107D9F73A
:1001B00023E0AEEDB2E001C01D92A231B207E1F73B
:1001C00003D00C94F50D1CCFCF93DF93CDB7DEB7E2
:1001D00066970FB6F894DEBF0FBECDBF87E690E0FE
:1001E00034D538D168D2F9D3B5D349D488D565D2BE
:1001F000682E00E010E00F2EF3E0AF2EB12CF02DB2
:1002000088248394CE010C968ED12C853D858F85D4
:100210002130310571F4F988EBD38F2D32D40115DB
:10022000110589F46B8970E080E090E05BD76ED0B7
:100230002CC02530310521F4082F112707FD10951A
:100240000115110511F134D56C0173D57C01B6018E
:10025000882777FD8095982F47D720E030E04FE73B
:1002600053E4F6D71B012C01B701882777FD809551
:10027000982F3AD79B01AC01C201B1019AD606D79B
:1002800070E080E090E02ED741D017D2982E8615EE
:1002900039F0BA82A9828B828C83CE010196F3D089
:1002A000BDD27C01A1D26C01B701882777FD809572
:1002B000982F1AD720E030E04FE753E4C9D72B013D
:1002C0003C01B601882777FD8095982F0DD79B01BB
:1002D000AC01C301B2016DD622D06B017C01682C48
:1002E00020E030E0A901B0D718160CF0612C862D63
:1002F00087D2C701B601CAD6862F7BD28FE39CE98D
:100300000197F1F700C00000692C7CCF6093E602F2
:100310007093E7028093E8029093E90208954F9268
:100320005F926F927F928F929F92AF92BF92CF9285
:10033000DF92EF92FF92CF93DF936B017C01C0912C
:100340000602D09107026881798180E090E0CAD6E8
:1003500020E034E244E75BE42CD62B013C01198217
:100360001882A70196016091E6027091E7028091E0
:10037000E8029091E902B4D56B017C01A3019201DE
:1003800067D72091DE023091DF024091E002509168
:10039000E102A7D54B015C016093DE027093DF029E
:1003A0008093E0029093E1022091E2023091E30217
:1003B0004091E4025091E502C701B60191D5A30135
:1003C0009201F7D52B013C01C092E202D092E302E8
:1003D000E092E402F092E50220E030E040E05FE3EA
:1003E000C501B40135D7A70196017BD56B017C010E
:1003F00020E030E0A901C301B2012AD79B01AC0182
:10040000C701B6016ED5DF91CF91FF90EF90DF90DD
:10041000CF90BF90AF909F908F907F906F905F90A4
:100420004F900895EAE7F0E08081806880838081C2
:100430008760808308958F71806680937C00EAE7EF
:10044000F0E0808180648083808186FDFDCF809193
:1004500079000895ABD140E060EE8FE08AD18EE064
:1004600049D1807E21F084E192E0B6C7089543E24D
:100470006FEF8BE27ED1E9E6F0E0808180628083DD
:10048000EA9A789408950F931F93CF93DF93CDB793
:10049000DEB7DC010DB71EB712964C91129750E0F3
:1004A0004B5F5F4F8DB79EB7841B950B0FB6F894CB
:1004B0009EBF0FBE8DBF6DB77EB76F5F7F4F8D91B3
:1004C0009C91119796958795969587959695879582
:1004D000EDB7FEB781838C918295880F807EFB01FA
:1004E00081831282138212968C91129784834630F4
:1004F00051055CF01396359625E030E08D9181939F
:100500002F5F3F4F24173507CCF381E303D181E000
:1005100024D10FB6F8941EBF0FBE0DBFDF91CF914F
:100520001F910F9108958F929F92AF92BF92CF9299
:10053000DF92EF92FF920F931F93CF93DF93CDB78C
:10054000DEB72B970FB6F894DEBF0FBECDBF7C0190
:100550008091FC028823B1F181E6CCD0A82E82E6FE
:10056000C9D0829586958770B12CAA0CBB1CAA0CA9
:10057000BB1CAA0CBB1CA82A85E6BCD08F70882E99
:1005800099F08E010C5F1F4F6801C80ED11C0F2E11
:10059000F6E69F2EF02D892DADD0F80181938F01C5
:1005A0009394EC15FD05B9F71092FC02BA82A9826A
:1005B0008B828BE0FE013196D70101900D928A95D6
:1005C000E1F708C08BE0E8E0F2E0D70101900D927E
:1005D0008A95E1F7C7012B960FB6F894DEBF0FBEE0
:1005E000CDBFDF91CF911F910F91FF90EF90DF90E2
:1005F000CF90BF90AF909F908F900895CF938DE252
:1006000079D0C82F82FF03C08FE392E0E5D6C1FF07
:1006100003C08DE592E0E0D6CF910895CF938CE2B0
:1006200069D0C82F85FDEADFC0FF03C081E0809359
:10063000FC0240E06FEF8CE29CD0CF9108951F92B6
:100640000F920FB60F9211240BB60F922F933F9378
:100650004F935F936F937F938F939F93AF93BF93CA
:10066000EF93FF93DBDFFF91EF91BF91AF919F91EC
:100670008F917F916F915F914F913F912F910F904B
:100680000BBE0F900FBE0F901F9018951DC20895BE
:10069000CF93DF9300D0CDB7DEB790E599831A8270
:1006A0008B8363E0CE01019619D20F900F900F90CB
:1006B000DF91CF910895B6CE089580E0BCDEEBEED9
:1006C000F2E020812093EA02ACEEB2E04C9140834C
:1006D000EDEEF2E0908130E0240F311D290F311D45
:1006E0009C938083280F311D81E0283C310508F060
:1006F00080E00895CF93C82FF894E2D183E0DAD157
:100700008C2FD8D180E0D6D1C82FDCD178948C2F13
:10071000CF910895EF92FF920F931F93CF93DF93A2
:10072000C82F7B018A01F894CBD182E0C3D18C2FF2
:10073000C1D11016110644F4E7010E0D1F1D899159
:10074000B9D1C017D107D9F7BDD17894DF91CF9136
:100750001F910F91FF90EF900895CF93C82FF894B9
:10076000AFD18C2F87708068A5D1ACD17894CF9110
:1007700008951F93CF93DF93182FD62FC42FF8948B
:100780009FD185E097D1812F95D18D2F93D18C2F3B
:1007900091D198D17894DF91CF911F910895F894D9
:1007A0008FD180EC87D18ED178940895CF93DF9349
:1007B0001F92CDB7DEB777D1F2DF8FE39CE90197C7
:1007C000F1F700C000008EE095DF89838981807E8B
:1007D000803829F086E792E0FFD581E001C080E013
:1007E0000F90DF91CF9108958091FD029091FE02CC
:1007F0000895803710F44CCF089580E749CF0895CD
:10080000882331F0E2E0F1E0808182608083089506
:10081000E2E0F1E080818D7F80830895CF93DF93C4
:100820001F921F92CDB7DEB71A821982E2E0F1E083
:1008300080818F7D80838081886080832FEF89EF26
:1008400090E0215080409040E1F700C000002091EE
:10085000060189819A81822B9A8389838081877F8F
:1008600080832FEF89EF90E0215080409040E1F7A6
:1008700000C000002091060189819A81922B9A8301
:10088000898380818062808389819A819195819515
:1008900091090F900F90DF91CF91089580E0B0DF24
:1008A00080E7F6DE2FEF8BE792E921508040904001
:1008B000E1F700C0000080E0EBDE2FEF89EF90E071
:1008C000215080409040E1F700C00000E2E0F1E0FC
:1008D00080818F7B80832FEF89EF90E021508040D3
:1008E0009040E1F700C0000080818064808396DF43
:1008F0009F938F9388EA92E09F938F935CD581E0DA
:100900007FDF80E7C5DE2FEF8BE792E92150804043
:100910009040E1F700C0000081DF8093FD029093DA
:10092000FE029F938F9389EB92E09F938F9343D521
:100930002FEF83ED90E3215080409040E1F700C01D
:1009400000008DB79EB708960FB6F8949EBF0FBEF5
:100950008DBF08959BDEE1E0F1E080818A678083AE
:1009600010920701E2E0F1E0808182618083808162
:100970008F7B80832FEF89EF90E021508040904063
:10098000E1F700C0000080818064808387CF0895F4
:10099000A0E8B0E022E02C93E1E8F0E028E1208339
:1009A0002C9120682C9320812360208320E030E06C
:1009B0004AE753E44DD46AD370938700609386006E
:1009C000259A089520E030E04AE753E441D45ED30D
:1009D0007093890060938800089560E070E080EA79
:1009E00091E4D6DF67ED73EA80EC9FE3EBCF0895E7
:1009F000CF92DF92EF92FF92682F772767FD709575
:100A0000872F972F71D320E030E048EC52E4D1D209
:100A100020E030E040E05FE31BD420E030E040EC39
:100A20005FE35FD26B017C0126E636E646E050E4E8
:100A30000BD4181654F026E636E646E65FE3C70107
:100A4000B601B3D288235CF012C00F2EF6E6CF2E8B
:100A5000DC2CF6E0EF2EF0E4FF2EF02D08C00F2E78
:100A6000F6E6CF2EDC2CEC2CFFE3FF2EF02DC70199
:100A7000B601A8DFFF90EF90DF90CF9008956C9AB9
:100A800008959091EE02891769F0882311F0749807
:100A900001C0749AEFE3FCE93197F1F700C0000060
:100AA0008093EE02089587E884B9289A8CB5816511
:100AB0008CBD08958EBD0DB407FEFDCF8EB5089593
:100AC0002F9808952F9A08958CE08093B8008FEFA7
:100AD0008093BB0084E08093BC000895ECEBF0E0D1
:100AE000208120FDFDCF6093F102FC012081209345
:100AF000F20220FD0CC0623050F0DC011196E3EFF1
:100B0000F2E081E09D9191938F5F8613FBCF10926D
:100B1000F00288EF8093130285EA8093BC00089569
:100B20001F920F920FB60F9211240BB60F922F93B4
:100B30003F938F939F93AF93BF93EF93FF938091D6
:100B4000B90090E0FC013897E135F10508F055C097
:100B5000EE58FF4FE0C31092EF02E091EF02809158
:100B6000F102E81770F481E08E0F8093EF02F0E05D
:100B7000EE50FD4F80818093BB0085E88093BC00E0
:100B800043C08091F00281608093F00284E98093F9
:100B9000BC003AC0E091EF0281E08E0F8093EF023B
:100BA0008091BB00F0E0EE50FD4F80832091EF027A
:100BB00030E08091F10290E001972817390724F482
:100BC00085EC8093BC0020C085E88093BC001CC0ED
:100BD0008091BB00E091EF02F0E0EE50FD4F80838A
:100BE0008091F00281608093F00284E98093BC00E0
:100BF0000BC085EA8093BC0007C08091B900809348
:100C0000130284E08093BC00FF91EF91BF91AF91FC
:100C10009F918F913F912F910F900BBE0F900FBE20
:100C20000F901F901895E0ECF0E0908195FFFDCFBC
:100C30008093C60080E090E00895E0ECF0E08081D1
:100C40008823ECF78091C60008959093C5008093A7
:100C5000C40088E18093C1008EE08093C2006DE102
:100C600076E083E196E05DD380E090E008958091A6
:100C7000FF0281111CC02FEF8DEE92E021508040C9
:100C80009040E1F700C00000739825E02A95F1F745
:100C90000000739A85E38A95F1F70000739881E06C
:100CA0008093FF021092050390EA9A95F1F7089558
:100CB000DEDF80910603909107030895CF93DF93C1
:100CC000CAE0D0E0F5DF8FE39CE90197F1F700C0BF
:100CD000000021972097B1F7EBDF809303039093F7
:100CE00004039F938F938AEC92E09F938F9363D337
:100CF0000F900F900F900F90DF91CF910895F8947F
:100D00006B9A6D98ED9AEAE6F0E0808184608083CA
:100D1000E1E9F0E080818E7F808380818260808342
:100D200016BCE1E7F0E08081816080837894C6CFD3
:100D30000895809103039091040308951F920F92E8
:100D40000FB60F9211240BB60F928F929F92AF9213
:100D5000BF92CF92DF92EF92FF920F931F932F9348
:100D60003F934F935F936F937F938F939F93AF9333
:100D7000BF93CF93DF93EF93FF938091FF02813076
:100D800009F074C08091020381110DC081E080934D
:100D90000203E1E9F0E08081826080831092010328
:100DA0001092000363C0813009F060C060910003BD
:100DB0007091010380E090E095D120E030E044EFB5
:100DC00051E446D24B015C01C4E9D0E0C880D9802F
:100DD000688179810F2EF8EFEF2EF2E0FF2EF02DD3
:100DE000F7010081118180E090E07CD19B01AC0192
:100DF000C501B40176D020E030E040E05FE328D2C6
:100E000045D1600F711F1093F7020093F6020AEFAD
:100E100012E0F80180819181F70191838083680F4E
:100E2000791F76956795769567957093070360931C
:100E30000603B60180E090E055D19B01AC01C501ED
:100E4000B4014FD020E030E040E05FE301D219D19F
:100E5000F80171836083109202031092FF02E1E9AE
:100E6000F0E080818D7F808319821882FF91EF915D
:100E7000DF91CF91BF91AF919F918F917F916F91B2
:100E80005F914F913F912F911F910F91FF90EF90A4
:100E9000DF90CF90BF90AF909F908F900F900BBE40
:100EA0000F900FBE0F901F9018951F920F920FB6C4
:100EB0000F9211248F939F9380910203813049F404
:100EC0008091000390910103019690930103809318
:100ED00000039F918F910F900FBE0F901F90189558
:100EE0005058BB27AA270ED075C166D130F06BD100
:100EF00020F031F49F3F11F41EF45BC10EF4E09535
:100F0000E7FB51C1E92F77D180F3BA176207730766
:100F10008407950718F071F49EF58FC10EF4E095E3
:100F20000B2EBA2FA02D0B01B90190010C01CA01A3
:100F3000A0011124FF27591B99F0593F50F4503E4E
:100F400068F11A16F040A22F232F342F4427585F40
:100F5000F3CF469537952795A795F0405395C9F758
:100F60007EF41F16BA0B620B730B840BBAF0915010
:100F7000A1F0FF0FBB1F661F771F881FC2F70EC0AF
:100F8000BA0F621F731F841F48F487957795679582
:100F9000B795F7959E3F08F0B3CF9395880F08F06B
:100FA0009927EE0F979587950895D9D008F481E099
:100FB00008950CD00FC107D140F0FED030F021F4DD
:100FC0005F3F19F0F0C0511139C1F3C014D198F34B
:100FD0009923C9F35523B1F3951B550BBB27AA27BA
:100FE00062177307840738F09F5F5F4F220F331F2C
:100FF000441FAA1FA9F333D00E2E3AF0E0E830D0F8
:1010000091505040E695001CCAF729D0FE2F27D0FA
:10101000660F771F881FBB1F261737074807AB07C8
:10102000B0E809F0BB0B802DBF01FF2793585F4F3D
:101030002AF09E3F510568F0B6C000C15F3FECF357
:10104000983EDCF3869577956795B795F7959F5F02
:10105000C9F7880F911D9695879597F90895E1E056
:10106000660F771F881FBB1F621773078407BA07B5
:1010700020F0621B730B840BBA0BEE1F88F7E09510
:10108000089504D06894B111D9C00895BCD088F0F7
:101090009F5790F0B92F9927B751A0F0D1F0660F64
:1010A000771F881F991F1AF0BA95C9F712C0B1307F
:1010B00081F0C3D0B1E00895C0C0672F782F882792
:1010C000B85F39F0B93FCCF3869577956795B395BE
:1010D000D9F73EF490958095709561957F4F8F4F2D
:1010E0009F4F0895E89409C097FB3EF49095809532
:1010F000709561957F4F8F4F9F4F9923A9F0F92FDE
:1011000096E9BB279395F695879577956795B7955B
:10111000F111F8CFFAF4BB0F11F460FF1BC06F5F41
:101120007F4F8F4F9F4F16C0882311F096E911C053
:10113000772321F09EE8872F762F05C0662371F074
:1011400096E8862F70E060E02AF09A95660F771F88
:10115000881FDAF7880F9695879597F90895990F64
:101160000008550FAA0BE0E8FEEF16161706E80771
:10117000F907C0F012161306E407F50798F0621B92
:10118000730B840B950B39F40A2661F0232B242B67
:10119000252B21F408950A2609F4A140A6958FEF86
:1011A000811D811D089597F99F6780E870E060E0D8
:1011B00008959FEF80EC089500240A9416161706F0
:1011C00018060906089500240A9412161306140638
:1011D00005060895092E0394000C11F4882352F09B
:1011E000BB0F40F4BF2B11F460FF04C06F5F7F4F53
:1011F0008F4F9F4F089557FD9058440F551F59F03A
:101200005F3F71F04795880F97FB991F61F09F3FF3
:1012100079F087950895121613061406551FF2CF1C
:101220004695F1DF08C0161617061806991FF1CF6C
:1012300086957105610508940895E894BB27662793
:101240007727CB0197F908958ADF08F48FEF089587
:101250000BD0C0CFB1DF28F0B6DF18F0952309F02E
:10126000A2CFA7CF1124EACFC6DFA0F3959FD1F379
:10127000950F50E0551F629FF001729FBB27F00D44
:10128000B11D639FAA27F00DB11DAA1F649F662799
:10129000B00DA11D661F829F2227B00DA11D621FE8
:1012A000739FB00DA11D621F839FA00D611D221FA2
:1012B000749F3327A00D611D231F849F600D211D86
:1012C000822F762F6A2F11249F5750408AF0E1F029
:1012D00088234AF0EE0FFF1FBB1F661F771F881F72
:1012E00091505040A9F79E3F510570F05CCFA6CFBA
:1012F0005F3FECF3983EDCF3869577956795B7955D
:10130000F795E7959F5FC1F7FE2B880F911D969586
:10131000879597F90895EE0FFF1F0590F491E02D42
:1013200019940F931F93CF93DF93EC018B010097D8
:1013300031F46115710519F480E090E037C06EE07A
:1013400070E081E090E063D2FC010097A9F380E8AF
:1013500083830115110571F01387028781E8838368
:101360008091080390910903892B21F4F0930903DC
:10137000E09308032097C9F0D187C08783818260FA
:10138000838380910A0390910B03892B71F4F0936E
:101390000B03E0930A0380910C0390910D03892BBA
:1013A00021F4F0930D03E0930C03CF01DF91CF9173
:1013B0001F910F910895CF93DF93CDB7DEB7FE0154
:1013C000369661917191AF0180910A0390910B0360
:1013D00030D0DF91CF9108950F931F93CF93DF9378
:1013E000E0910A03F0910B03238121FF1BC0EC0164
:1013F00000E010E0899160910A0370910B03DB011A
:101400001896ED91FC911997882331F01995892B45
:1014100089F30FEF1FEFEECF8AE01995892B11F4B6
:10142000C80102C08FEF9FEFDF91CF911F910F9105
:1014300008952F923F924F925F926F927F928F9278
:101440009F92AF92BF92CF92DF92EF92FF920F9353
:101450001F93CF93DF93CDB7DEB72C970FB6F894D9
:10146000DEBF0FBECDBF7C016B018A01FC0117827C
:101470001682838181FFB0C1CE0101964C01F70134
:101480009381F60193FD859193FF81916F018823EC
:1014900009F49EC1853239F493FD859193FF8191C2
:1014A0006F01853221F4B70190E00FD3E8CF512CC2
:1014B000312C20E02032A0F48B3269F030F48032FD
:1014C00059F0833269F420612CC08D3239F08033B9
:1014D00039F4216026C02260246023C0286021C026
:1014E00027FD27C030ED380F3A3078F426FF06C0CC
:1014F000FAE05F9E300D1124532E13C08AE0389E0F
:10150000300D1124332E20620CC08E3221F426FDC2
:101510005FC1206406C08C3611F4206802C0883692
:1015200041F4F60193FD859193FF81916F01811143
:10153000C1CF982F9F7D9554933028F40C5F1F4F97
:10154000FFE3F9830DC0833631F0833771F08335C3
:1015500009F057C021C0F801808189830E5F1F4FB9
:1015600044244394512C540114C03801F2E06F0E0E
:10157000711CF801A080B18026FF03C0652D70E0CA
:1015800002C06FEF7FEFC5012C8794D22C0183013D
:101590002C852F77222E16C03801F2E06F0E711CB9
:1015A000F801A080B18026FF03C0652D70E002C065
:1015B0006FEF7FEFC5012C876BD22C012C85206843
:1015C000222E830123FC19C0832D90E04816590672
:1015D000A0F4B70180E290E078D23A94F5CFF5011B
:1015E00027FC859127FE81915F01B70190E06DD2C4
:1015F00031103A94F1E04F1A51084114510479F72F
:10160000DEC0843611F0893631F5F80127FF07C0B6
:1016100060817181828193810C5F1F4F08C060815E
:101620007181882777FD8095982F0E5F1F4F2F7649
:10163000B22E97FF09C090958095709561957F4F68
:101640008F4F9F4F2068B22E2AE030E0A4016FD266
:10165000A82EA81843C0853729F42F7EB22E2AE081
:1016600030E025C0F22FF97FBF2E8F36C1F018F47D
:10167000883579F0ADC0803719F0883721F0A8C0DF
:101680002F2F2061B22EB4FE0DC08B2D8460B82E9A
:1016900009C024FF0AC09F2F9660B92E06C028E01B
:1016A00030E005C020E130E002C020E132E0F80186
:1016B000B7FE07C060817181828193810C5F1F4FEB
:1016C00006C06081718180E090E00E5F1F4FA40131
:1016D0002ED2A82EA818FB2DFF77BF2EB6FE0BC06A
:1016E0002B2D2E7FA51450F4B4FE0AC0B2FC08C006
:1016F0002B2D2E7E05C07A2C2B2D03C07A2C01C0F9
:10170000752C24FF0DC0FE01EA0DF11D8081803390
:1017100011F4297E09C022FF06C07394739404C09B
:10172000822F867809F0739423FD12C020FF06C033
:101730005A2C731418F4530C5718732C731460F448
:10174000B70180E290E02C87C0D173942C85F6CF4E
:10175000731410F4371801C0312C24FF11C0B701E5
:1017600080E390E02C87B1D12C8522FF16C021FFA9
:1017700003C088E590E002C088E790E0B7010CC0A4
:10178000822F867851F021FD02C080E201C08BE2F9
:1017900027FD8DE2B70190E098D1A51430F4B70190
:1017A00080E390E092D15A94F8CFAA94F401EA0D24
:1017B000F11D8081B70190E088D1A110F6CF3320D0
:1017C00009F45DCEB70180E290E07FD13A94F7CF83
:1017D000F7018681978102C08FEF9FEF2C960FB69D
:1017E000F894DEBF0FBECDBFDF91CF911F910F9157
:1017F000FF90EF90DF90CF90BF90AF909F908F9031
:101800007F906F905F904F903F902F9008950F932F
:101810001F93CF93DF93869F8001879F100D969F24
:10182000100D1124C8010DD0EC01009721F0A80182
:1018300060E070E038D1CE01DF91CF911F910F9120
:101840000895CF93DF938230910510F482E090E009
:10185000E0911003F091110320E030E0A0E0B0E04F
:10186000309739F14081518148175907B8F048172E
:10187000590771F482819381109729F013969C93F4
:101880008E9312972CC0909311038093100327C05E
:101890002115310531F04217530718F0A901DB017A
:1018A00001C0EF019A01BD01DF010280F381E02D4B
:1018B000D7CF21153105F9F0281B390B243031051C
:1018C00080F48A819B816115710521F0FB0193836E
:1018D000828304C09093110380931003FE0132961B
:1018E00044C0FE01E20FF31F81939193225031090E
:1018F000398328833AC020910E0330910F03232BA4
:1019000041F4209102023091030230930F0320939F
:101910000E0320910002309101022115310541F49E
:101920002DB73EB74091040250910502241B350BA0
:10193000E0910E03F0910F03E217F307A0F42E1BC2
:101940003F0B2817390778F0AC014E5F5F4F241723
:10195000350748F04E0F5F1F50930F0340930E035F
:101960008193919302C0E0E0F0E0CF01DF91CF914D
:101970000895CF93DF93009709F487C0FC01329755
:1019800013821282C0911003D0911103209781F429
:1019900020813181280F391F80910E0390910F0310
:1019A0008217930779F5F0930F03E0930E036DC050
:1019B000DE0120E030E0AE17BF0750F412964D91E3
:1019C0005C9113979D014115510509F1DA01F3CF9F
:1019D000B383A28340815181840F951F8A179B078F
:1019E00071F48D919C911197840F951F02969183AC
:1019F000808312968D919C911397938382832115F6
:101A0000310529F4F0931103E09310033EC0D9018E
:101A10001396FC93EE9312974D915D91A40FB51F11
:101A2000EA17FB0779F480819181840F951F029654
:101A3000D90111969C938E938281938113969C93E6
:101A40008E931297E0E0F0E08A819B81009719F075
:101A5000FE01EC01F9CFCE01029628813981820F77
:101A6000931F20910E0330910F032817390769F453
:101A7000309729F4109211031092100302C01382C0
:101A80001282D0930F03C0930E03DF91CF9108957C
:101A9000FC010590615070400110D8F78095909539
:101AA0008E0F9F1F0895DC0101C06D93415050407F
:101AB000E0F70895FC016150704001900110D8F7E3
:101AC000809590958E0F9F1F08950F931F93CF932E
:101AD000DF93182F092FEB018B8181FD03C08FEF5E
:101AE0009FEF20C082FF10C04E815F812C813D811D
:101AF000421753077CF4E881F9819F012F5F3F4F24
:101B000039832883108306C0E885F985812F1995CC
:101B1000892B29F72E813F812F5F3F4F3F832E83F3
:101B2000812F902FDF91CF911F910F910895FA018E
:101B3000AA27283051F1203181F1E8946F936E7F0C
:101B40006E5F7F4F8F4F9F4FAF4FB1E03ED0B4E0FD
:101B50003CD0670F781F891F9A1FA11D680F791F3E
:101B60008A1F911DA11D6A0F711D811D911DA11D4F
:101B700020D009F468943F912AE0269F112430195F
:101B8000305D3193DEF6CF010895462F4770405DFA
:101B90004193B3E00FD0C9F7F6CF462F4F70405DA9
:101BA0004A3318F0495D31FD4052419302D0A9F704
:101BB000EACFB4E0A6959795879577956795BA95FE
:101BC000C9F700976105710508959B01AC010A2EC4
:101BD00006945795479537952795BA95C9F7620F9B
:0E1BE000731F841F951FA01D0895F894FFCF5A
:101BEE0000001203200084006400010000000000C9
:101BFE00000000F84D435032353531206973204EC8
:101C0E004F5420696E206E6F726D616C206D6F6423
:101C1E006520616674657220726573657421002893
:101C2E0045292063616E2E633A205472616E736D86
:101C3E00697373696F6E206572726F720028452921
:101C4E002063616E2E633A20526563656976652066
:101C5E006572726F72004D435032353531206973A3
:101C6E00204E4F5420696E20636F6E6669677572E1
:101C7E006174696F6E206D6F646520616674657244
:101C8E002072657365742100456E636F6465722002
:101C9E006D696E3A2025640A00456E636F64657245
:101CAE00206D61783A2025640A00556C7472617358
:0E1CBE006F756E64206D61783A2025640A000F
:00000001FF
