S012000041546D656761323536302E7372656316
S1130000C2C00000E0C00000DEC0000023C3000046
S1130010DAC00000D8C000004FC60000D4C0000001
S1130020D2C00000D0C00000CEC00000CCC0000090
S1130030CAC00000C8C00000C6C00000C4C00000A0
S1130040C2C00000C0C00000BEC00000BCC00000B0
S1130050BAC00000B8C00000B6C00000B4C00000C0
S1130060B2C00000B0C00000AEC00000ACC00000D0
S1130070AAC00000A8C00000A6C00000A4C00000E0
S1130080A2C00000A0C000009EC00000DEC60000A8
S11300909AC0000098C0000096C000004CC5000043
S11300A092C0000090C000008EC000008CC0000010
S11300B08AC0000088C0000086C0000084C0000020
S11300C082C0000080C000007EC000007CC0000030
S11300D07AC0000078C0000076C0000074C0000040
S11300E072C00000B60508060806080608060806D9
S11300F008060806B60508060806080608060806DF
S113010008060806B80508060806080608060806CC
S1130110080608060806080608060806080608066B
S113012008060806B80508060806080608060806AC
S1130130080608060806080608060806080608064B
S1130140080608060406080608060806080608063F
S113015008060806E1050806080608060806080653
S1130160080608060806080608060806080608061B
S113017008060806D505080608060806080608063F
S113018008060806F30511241FBECFEFD1E2DEBF37
S1130190CDBF00E00CBF12E0A0E0B2E0EEE8FBE16E
S11301A000E00BBF02C007900D92A43DB107D9F740
S11301B023E0A4EDB2E001C01D92A730B207E1F73D
S11301C003D00C94C50D1CCFCF93DF93CDB7DEB70E
S11301D066970FB6F894DEBF0FBECDBF87E690E0FA
S11301E03FD543D173D204D4C0D354D45AD54AD5BD
S11301F06FD2F82E662463940F2EF4E18F2EF2E072
S11302009F2EF02D6894AA24A1F8B12C04E212E0E8
S1130210CE010C9693D1DF84E988CB882C853D856B
S11302202130310539F51F92CF928A891F928F931D
S11302308E2D992787FD90959F93EF922D2D33272F
S113024027FD30953F93DF921F926F929F928F927A
S11302500E94AB098D2D8195D6D38E2D1DD46C2D86
S113026070E080E090E00ED75CD00FB6F894DEBF6B
S11302700FBECDBF2DD2782E8F1539F0BA82A98248
S11302806B828C83CE01019609D1D3D27C01B7D283
S11302906C01B701882777FD8095982FF5D620E06B
S11302A030E04FE753E4A4D71B012C01B6018827A3
S11302B077FD8095982FE8D69B01AC01C201B1016E
S11302C048D638D0C62ED72EE82EF92E9F938F937A
S11302D07F936F931F930F930E94AB09462C20E0EA
S11302E030E0A9016C2D7D2D8E2D9F2D7DD7181604
S11302F00CF0412C842D8FD26C2D7D2D8E2D9F2DB5
S113030095D6862F81D28FE39CE90197F1F700C03F
S113031000000F900F900F900F900F900F90F72CFC
S113032077CF6093DC027093DD028093DE029093BA
S1130330DF0208954F925F926F927F928F929F9205
S1130340AF92BF92CF92DF92EF92FF92CF93DF935F
S11303506B017C01C0910602D0910702688179810A
S113036080E090E08FD620E034E244E75BE4F1D50E
S11303702B013C0119821882A70196016091DC02CD
S11303807091DD028091DE029091DF0279D56B01DC
S11303907C01A30192012CD72091D4023091D50283
S11303A04091D6025091D7026CD54B015C01609309
S11303B0D4027093D5028093D6029093D7022091F1
S11303C0D8023091D9024091DA025091DB02C70180
S11303D0B60156D5A3019201BCD52B013C01C092B4
S11303E0D802D092D902E092DA02F092DB0220E045
S11303F030E040E05FE3C501B401FAD6A7019601FD
S113040040D56B017C0120E030E0A901C301B201B9
S1130410EFD69B01AC01C701B60133D5DF91CF9173
S1130420FF90EF90DF90CF90BF90AF909F908F9010
S11304307F906F905F904F900895EAE7F0E080819D
S11304408068808380818760808308958F7180664F
S113045080937C00EAE7F0E080818064808380817F
S113046086FDFDCF809179000895ABD140E060EE28
S11304708FE08AD18EE049D1807E21F08CE292E037
S11304807BC7089543E26FEF8BE27ED1E9E6F0E0AB
S1130490808180628083EA9A789408950F931F93F1
S11304A0CF93DF93CDB7DEB7DC010DB71EB712963D
S11304B04C91129750E04B5F5F4F8DB79EB7841BF2
S11304C0950B0FB6F8949EBF0FBE8DBF6DB77EB768
S11304D06F5F7F4F8D919C91119796958795969517
S11304E0879596958795EDB7FEB781838C91829514
S11304F0880F807EFB0181831282138212968C9175
S113050012978483463051055CF01396359625E0A6
S113051030E08D9181932F5F3F4F24173507CCF343
S113052081E303D181E024D10FB6F8941EBF0FBE3E
S11305300DBFDF91CF911F910F9108958F929F92DC
S1130540AF92BF92CF92DF92EF92FF920F931F93DD
S1130550CF93DF93CDB7DEB72B970FB6F894DEBFFA
S11305600FBECDBF7C018091F2028823B1F181E6F8
S1130570CCD0A82E82E6C9D0829586958770B12CFE
S1130580AA0CBB1CAA0CBB1CAA0CBB1CA82A85E683
S1130590BCD08F70882E99F08E010C5F1F4F6801BC
S11305A0C80ED11C0F2EF6E69F2EF02D892DADD04E
S11305B0F80181938F019394EC15FD05B9F710921E
S11305C0F202BA82A9828B828BE0FE013196D701B6
S11305D001900D928A95E1F708C08BE0E8E0F2E023
S11305E0D70101900D928A95E1F7C7012B960FB6BA
S11305F0F894DEBF0FBECDBFDF91CF911F910F9155
S1130600FF90EF90DF90CF90BF90AF909F908F902E
S11306100895CF938DE279D0C82F82FF03C087E578
S113062092E0AAD6C1FF03C085E792E0A5D6CF9198
S11306300895CF938CE269D0C82F85FDEADFC0FF0F
S113064003C081E08093F20240E06FEF8CE29CD023
S1130650CF9108951F920F920FB60F9211240BB6EB
S11306600F922F933F934F935F936F937F938F9347
S11306709F93AF93BF93EF93FF93DBDFFF91EF91D2
S1130680BF91AF919F918F917F916F915F914F91A6
S11306903F912F910F900BBE0F900FBE0F901F90A4
S11306A018951DC20895CF93DF9300D0CDB7DEB760
S11306B090E599831A828B8363E0CE01019619D267
S11306C00F900F900F90DF91CF910895B6CE0895BB
S11306D080E0BCDEE1EEF2E020812093E002A2EEB5
S11306E0B2E04C914083E3EEF2E0908130E0240FDD
S11306F0311D290F311D9C938083280F311D81E00A
S1130700283C310508F080E00895CF93C82FF89471
S1130710E2D183E0DAD18C2FD8D180E0D6D1C82FB2
S1130720DCD178948C2FCF910895EF92FF920F93A0
S11307301F93CF93DF93C82F7B018A01F894CBD109
S113074082E0C3D18C2FC1D11016110644F4E70105
S11307500E0D1F1D8991B9D1C017D107D9F7BDD18D
S11307607894DF91CF911F910F91FF90EF900895AE
S1130770CF93C82FF894AFD18C2F87708068A5D100
S1130780ACD17894CF9108951F93CF93DF93182F12
S1130790D62FC42FF8949FD185E097D1812F95D17E
S11307A08D2F93D18C2F91D198D17894DF91CF91C3
S11307B01F910895F8948FD180EC87D18ED17894CD
S11307C00895CF93DF931F92CDB7DEB777D1F2DFD1
S11307D08FE39CE90197F1F700C000008EE095DFFC
S11307E089838981807E803829F08EE892E0C4D59F
S11307F081E001C080E00F90DF91CF910895809156
S1130800F3029091F4020895803710F44CCF0895C8
S113081080E749CF0895882331F0E2E0F1E0808158
S1130820826080830895E2E0F1E080818D7F80839F
S11308300895CF93DF931F921F92CDB7DEB71A822C
S11308401982E2E0F1E080818F7D8083808188607D
S113085080832FEF89EF90E0215080409040E1F7B2
S113086000C000002091060189819A81822B9A831D
S113087089838081877F80832FEF89EF90E02150E7
S113088080409040E1F700C000002091060189817A
S11308909A81922B9A838983808180628083898163
S11308A09A819195819591090F900F90DF91CF9145
S11308B0089580E0B0DF80E7F6DE2FEF8BE792E962
S11308C0215080409040E1F700C0000080E0EBDE62
S11308D02FEF89EF90E0215080409040E1F700C075
S11308E00000E2E0F1E080818F7B80832FEF89EFCD
S11308F090E0215080409040E1F700C000008081EA
S11309008064808396DF9F938F9380EC92E09F9323
S11309108F9321D581E07FDF80E7C5DE2FEF8BE762
S113092092E9215080409040E1F700C0000081DF4F
S11309308093F3029093F4029F938F938AEC92E056
S11309409F938F9308D52FEF83ED90E32150804040
S11309509040E1F700C000008DB79EB708960FB62F
S1130960F8949EBF0FBE8DBF08959BDEE1E0F1E0D9
S113097080818A67808310920701E2E0F1E0808140
S11309808261808380818F7B80832FEF89EF90E069
S1130990215080409040E1F700C0000080818064D5
S11309A0808387CF0895A0E8B0E022E02C93E1E8AB
S11309B0F0E028E120832C9120682C93208123608F
S11309C0208320E030E04AE753E412D42FD370931D
S11309D0870060938600259A089520E030E04AE776
S11309E053E406D423D37093890060938800089558
S11309F060E070E080EA91E4D6DF67ED73EA80ECB2
S1130A009FE3EBCF0895CF92DF92EF92FF92682F8E
S1130A10772767FD7095872F972F36D320E030E036
S1130A2048EC52E496D220E030E040E05FE3E0D3CB
S1130A3020E030E040EC5FE324D26B017C0126E649
S1130A4036E646E050E4D0D3181654F026E636E6EF
S1130A5046E65FE3C701B60178D288235CF012C092
S1130A600F2EF6E6CF2EDC2CF6E0EF2EF0E4FF2E70
S1130A70F02D08C00F2EF6E6CF2EDC2CEC2CFFE375
S1130A80FF2EF02DC701B601A8DFFF90EF90DF9095
S1130A90CF9008956C9A08959091E402891769F0B3
S1130AA0882311F0749801C0749AEFE3FCE931973C
S1130AB0F1F700C000008093E402089587E884B948
S1130AC0289A8CB581658CBD08958EBD0DB407FE42
S1130AD0FDCF8EB508952F9808952F9A08958CE030
S1130AE08093B8008FEF8093BB0084E08093BC00B8
S1130AF00895ECEBF0E0208120FDFDCF6093E70248
S1130B00FC0120812093E80220FD0CC0623050F0EB
S1130B10DC011196E9EEF2E081E09D9191938F5F03
S1130B208613FBCF1092E60288EF8093130285EAC6
S1130B308093BC0008951F920F920FB60F92112458
S1130B400BB60F922F933F938F939F93AF93BF93C3
S1130B50EF93FF938091B90090E0FC013897E13561
S1130B60F10508F055C0EE58FF4FA5C31092E502F9
S1130B70E091E5028091E702E81770F481E08E0FBE
S1130B808093E502F0E0E851FD4F80818093BB0043
S1130B9085E88093BC0043C08091E6028160809325
S1130BA0E60284E98093BC003AC0E091E50281E06A
S1130BB08E0F8093E5028091BB00F0E0E851FD4F79
S1130BC080832091E50230E08091E70290E0019774
S1130BD02817390724F485EC8093BC0020C085E8ED
S1130BE08093BC001CC08091BB00E091E502F0E062
S1130BF0E851FD4F80838091E60281608093E60294
S1130C0084E98093BC000BC085EA8093BC0007C0D4
S1130C108091B9008093130284E08093BC00FF911B
S1130C20EF91BF91AF919F918F913F912F910F9031
S1130C300BBE0F900FBE0F901F901895E0ECF0E0E4
S1130C40908195FFFDCF8093C60080E090E00895E9
S1130C50E0ECF0E080818823ECF78091C6000895F1
S1130C609093C5008093C40088E18093C1008EE016
S1130C708093C20068E276E08EE196E022D380E0C1
S1130C8090E00895E1E9F0E080818E7F80838081A7
S1130C908260808316BCE1E7F0E08081816080831C
S1130CA00895F8946B9A6D98ED9AEAE6F0E08081E5
S1130CB084608083789408951F920F920FB60F92E8
S1130CC011240BB60F928F929F92AF92BF92CF9244
S1130CD0DF92EF92FF920F931F932F933F934F93C3
S1130CE05F936F937F938F939F93AF93BF93CF93B0
S1130CF0DF93EF93FF9381E08093F5028091F802F4
S1130D0081110DC081E08093F802E1E9F0E0808177
S1130D10826080831092F7021092F60277C08130CD
S1130D2009F074C06091F6027091F70280E090E0DF
S1130D30A9D120E030E044EF51E45AD24B015C01E8
S1130D40C4E9D0E0C880D980688179810F2EFEEE95
S1130D50EF2EF2E0FF2EF02DF7010081118180E0EB
S1130D6090E090D19B01AC01C501B4018AD020E090
S1130D7030E040E05FE33CD220E030E048E652E47B
S1130D80E8D020E030E040EA50E47BD04FD1600F5F
S1130D90711F1093ED020093EC0200EF12E0F801D2
S1130DA080819181F70191838083860F971F9695A7
S1130DB08795969587959093FC028093FB02B601E4
S1130DC080E090E05FD19B01AC01C501B40159D032
S1130DD020E030E040E05FE30BD220E030E048E682
S1130DE052E4B7D020E030E040EA50E44AD019D1D0
S1130DF0F801718360831092F8021092F502E1E920
S1130E00F0E080818D7F808319821882FF91EF91B9
S1130E10DF91CF91BF91AF919F918F917F916F910E
S1130E205F914F913F912F911F910F91FF90EF9000
S1130E30DF90CF90BF90AF909F908F900F900BBE9C
S1130E400F900FBE0F901F9018951F920F920FB620
S1130E500F9211248F939F938091F802813049F46B
S1130E608091F6029091F70201969093F702809395
S1130E70F6029F918F910F900FBE0F901F901895BF
S1130E805058BB27AA270ED075C166D130F06BD15C
S1130E9020F031F49F3F11F41EF45BC10EF4E09591
S1130EA0E7FB51C1E92F77D180F3BA1762077307C3
S1130EB08407950718F071F49EF58FC10EF4E09540
S1130EC00B2EBA2FA02D0B01B90190010C01CA0100
S1130ED0A0011124FF27591B99F0593F50F4503EAB
S1130EE068F11A16F040A22F232F342F4427585F9D
S1130EF0F3CF469537952795A795F0405395C9F7B5
S1130F007EF41F16BA0B620B730B840BBAF091506C
S1130F10A1F0FF0FBB1F661F771F881FC2F70EC00B
S1130F20BA0F621F731F841F48F4879577956795DE
S1130F30B795F7959E3F08F0B3CF9395880F08F0C7
S1130F409927EE0F979587950895D9D008F481E0F5
S1130F5008950CD00FC107D140F0FED030F021F439
S1130F605F3F19F0F0C0511139C1F3C014D198F3A7
S1130F709923C9F35523B1F3951B550BBB27AA2716
S1130F8062177307840738F09F5F5F4F220F331F88
S1130F90441FAA1FA9F333D00E2E3AF0E0E830D054
S1130FA091505040E695001CCAF729D0FE2F27D057
S1130FB0660F771F881FBB1F261737074807AB0725
S1130FC0B0E809F0BB0B802DBF01FF2793585F4F9A
S1130FD02AF09E3F510568F0B6C000C15F3FECF3B4
S1130FE0983EDCF3869577956795B795F7959F5F5F
S1130FF0C9F7880F911D9695879597F90895E1E0B3
S1131000660F771F881FBB1F621773078407BA0711
S113101020F0621B730B840BBA0BEE1F88F7E0956C
S1131020089504D06894B111D9C00895BCD088F053
S11310309F5790F0B92F9927B751A0F0D1F0660FC0
S1131040771F881F991F1AF0BA95C9F712C0B130DB
S113105081F0C3D0B1E00895C0C0672F782F8827EE
S1131060B85F39F0B93FCCF3869577956795B3951A
S1131070D9F73EF490958095709561957F4F8F4F89
S11310809F4F0895E89409C097FB3EF4909580958E
S1131090709561957F4F8F4F9F4F9923A9F0F92F3A
S11310A096E9BB279395F695879577956795B795B8
S11310B0F111F8CFFAF4BB0F11F460FF1BC06F5F9E
S11310C07F4F8F4F9F4F16C0882311F096E911C0B0
S11310D0772321F09EE8872F762F05C0662371F0D1
S11310E096E8862F70E060E02AF09A95660F771FE5
S11310F0881FDAF7880F9695879597F90895990FC1
S11311000008550FAA0BE0E8FEEF16161706E807CD
S1131110F907C0F012161306E407F50798F0621BEE
S1131120730B840B950B39F40A2661F0232B242BC3
S1131130252B21F408950A2609F4A140A6958FEFE2
S1131140811D811D089597F99F6780E870E060E034
S113115008959FEF80EC089500240A94161617064C
S113116018060906089500240A9412161306140694
S113117005060895092E0394000C11F4882352F0F7
S1131180BB0F40F4BF2B11F460FF04C06F5F7F4FAF
S11311908F4F9F4F089557FD9058440F551F59F096
S11311A05F3F71F04795880F97FB991F61F09F3F50
S11311B079F087950895121613061406551FF2CF79
S11311C04695F1DF08C0161617061806991FF1CFC9
S11311D086957105610508940895E894BB276627F0
S11311E07727CB0197F908958ADF08F48FEF0895E4
S11311F00BD0C0CFB1DF28F0B6DF18F0952309F08B
S1131200A2CFA7CF1124EACFC6DFA0F3959FD1F3D5
S1131210950F50E0551F629FF001729FBB27F00DA0
S1131220B11D639FAA27F00DB11DAA1F649F6627F5
S1131230B00DA11D661F829F2227B00DA11D621F44
S1131240739FB00DA11D621F839FA00D611D221FFE
S1131250749F3327A00D611D231F849F600D211DE2
S1131260822F762F6A2F11249F5750408AF0E1F085
S113127088234AF0EE0FFF1FBB1F661F771F881FCE
S113128091505040A9F79E3F510570F05CCFA6CF16
S11312905F3FECF3983EDCF3869577956795B795B9
S11312A0F795E7959F5FC1F7FE2B880F911D9695E3
S11312B0879597F90895EE0FFF1F0590F491E02D9F
S11312C019940F931F93CF93DF93EC018B01009735
S11312D031F46115710519F480E090E037C06EE0D7
S11312E070E081E090E063D2FC010097A9F380E80C
S11312F083830115110571F01387028781E88383C5
S11313008091FD029091FE02892B21F4F093FE025C
S1131310E093FD022097C9F0D187C0878381826062
S113132083838091FF0290910003892B71F4F093E1
S11313300003E093FF028091010390910203892B43
S113134021F4F0930203E0930103CF01DF91CF91E5
S11313501F910F910895CF93DF93CDB7DEB7FE01B0
S1131360369661917191AF018091FF0290910003D3
S113137030D0DF91CF9108950F931F93CF93DF93D4
S1131380E091FF02F0910003238121FF1BC0EC01D7
S113139000E010E089916091FF0270910003DB018D
S11313A01896ED91FC911997882331F01995892BA2
S11313B089F30FEF1FEFEECF8AE01995892B11F413
S11313C0C80102C08FEF9FEFDF91CF911F910F9162
S11313D008952F923F924F925F926F927F928F92D5
S11313E09F92AF92BF92CF92DF92EF92FF920F93B0
S11313F01F93CF93DF93CDB7DEB72C970FB6F89436
S1131400DEBF0FBECDBF7C016B018A01FC011782D8
S11314101682838181FFB0C1CE0101964C01F70190
S11314209381F60193FD859193FF81916F01882348
S113143009F49EC1853239F493FD859193FF81911E
S11314406F01853221F4B70190E00FD3E8CF512C1E
S1131450312C20E02032A0F48B3269F030F4803259
S113146059F0833269F420612CC08D3239F0803315
S113147039F4216026C02260246023C0286021C082
S113148027FD27C030ED380F3A3078F426FF06C028
S1131490FAE05F9E300D1124532E13C08AE0389E6B
S11314A0300D1124332E20620CC08E3221F426FD1F
S11314B05FC1206406C08C3611F4206802C08836EF
S11314C041F4F60193FD859193FF81916F018111A0
S11314D0C1CF982F9F7D9554933028F40C5F1F4FF4
S11314E0FFE3F9830DC0833631F0833771F0833520
S11314F009F057C021C0F801808189830E5F1F4F16
S113150044244394512C540114C03801F2E06F0E6A
S1131510711CF801A080B18026FF03C0652D70E026
S113152002C06FEF7FEFC5012C8794D22C01830199
S11315302C852F77222E16C03801F2E06F0E711C15
S1131540F801A080B18026FF03C0652D70E002C0C1
S11315506FEF7FEFC5012C876BD22C012C8520689F
S1131560222E830123FC19C0832D90E048165906CE
S1131570A0F4B70180E290E078D23A94F5CFF50177
S113158027FC859127FE81915F01B70190E06DD220
S113159031103A94F1E04F1A51084114510479F78B
S11315A0DEC0843611F0893631F5F80127FF07C013
S11315B060817181828193810C5F1F4F08C06081BB
S11315C07181882777FD8095982F0E5F1F4F2F76A6
S11315D0B22E97FF09C090958095709561957F4FC5
S11315E08F4F9F4F2068B22E2AE030E0A4016FD2C3
S11315F0A82EA81843C0853729F42F7EB22E2AE0DE
S113160030E025C0F22FF97FBF2E8F36C1F018F4D9
S1131610883579F0ADC0803719F0883721F0A8C03B
S11316202F2F2061B22EB4FE0DC08B2D8460B82EF6
S113163009C024FF0AC09F2F9660B92E06C028E077
S113164030E005C020E130E002C020E132E0F801E2
S1131650B7FE07C060817181828193810C5F1F4F47
S113166006C06081718180E090E00E5F1F4FA4018D
S11316702ED2A82EA818FB2DFF77BF2EB6FE0BC0C6
S11316802B2D2E7FA51450F4B4FE0AC0B2FC08C062
S11316902B2D2E7E05C07A2C2B2D03C07A2C01C055
S11316A0752C24FF0DC0FE01EA0DF11D80818033ED
S11316B011F4297E09C022FF06C07394739404C0F8
S11316C0822F867809F0739423FD12C020FF06C090
S11316D05A2C731418F4530C5718732C731460F4A5
S11316E0B70180E290E02C87C0D173942C85F6CFAB
S11316F0731410F4371801C0312C24FF11C0B70142
S113170080E390E02C87B1D12C8522FF16C021FF05
S113171003C088E590E002C088E790E0B7010CC000
S1131720822F867851F021FD02C080E201C08BE255
S113173027FD8DE2B70190E098D1A51430F4B701EC
S113174080E390E092D15A94F8CFAA94F401EA0D80
S1131750F11D8081B70190E088D1A110F6CF33202C
S113176009F45DCEB70180E290E07FD13A94F7CFDF
S1131770F7018681978102C08FEF9FEF2C960FB6F9
S1131780F894DEBF0FBECDBFDF91CF911F910F91B3
S1131790FF90EF90DF90CF90BF90AF909F908F908D
S11317A07F906F905F904F903F902F9008950F938C
S11317B01F93CF93DF93869F8001879F100D969F81
S11317C0100D1124C8010DD0EC01009721F0A801DF
S11317D060E070E038D1CE01DF91CF911F910F917D
S11317E00895CF93DF938230910510F482E090E066
S11317F0E0910503F091060320E030E0A0E0B0E0C2
S1131800309739F14081518148175907B8F048178A
S1131810590771F482819381109729F013969C9350
S11318208E9312972CC0909306038093050327C0D0
S11318302115310531F04217530718F0A901DB01D6
S113184001C0EF019A01BD01DF010280F381E02DA7
S1131850D7CF21153105F9F0281B390B2430310578
S113186080F48A819B816115710521F0FB019383CA
S1131870828304C09093060380930503FE0132968D
S113188044C0FE01E20FF31F81939193225031096A
S1131890398328833AC02091030330910403232B16
S11318A041F4209102023091030230930403209307
S11318B0030320910002309101022115310541F406
S11318C02DB73EB74091040250910502241B350BFD
S11318D0E0910303F0910403E217F307A0F42E1B35
S11318E03F0B2817390778F0AC014E5F5F4F241780
S11318F0350748F04E0F5F1F5093040340930303D2
S11319008193919302C0E0E0F0E0CF01DF91CF91A9
S11319100895CF93DF93009709F487C0FC013297B1
S113192013821282C0910503D0910603209781F49B
S113193020813181280F391F809103039091040382
S11319408217930779F5F0930403E09303036DC0C2
S1131950DE0120E030E0AE17BF0750F412964D913F
S11319605C9113979D014115510509F1DA01F3CFFB
S1131970B383A28340815181840F951F8A179B07EB
S113198071F48D919C911197840F951F0296918308
S1131990808312968D919C91139793838283211552
S11319A0310529F4F0930603E09305033EC0D90101
S11319B01396FC93EE9312974D915D91A40FB51F6E
S11319C0EA17FB0779F480819181840F951F0296B1
S11319D0D90111969C938E938281938113969C9343
S11319E08E931297E0E0F0E08A819B81009719F0D2
S11319F0FE01EC01F9CFCE01029628813981820FD4
S1131A00931F20910303309104032817390769F4C5
S1131A10309729F4109206031092050302C0138232
S1131A201282D0930403C0930303DF91CF910895EE
S1131A30FC010590615070400110D8F78095909595
S1131A408E0F9F1F0895DC0101C06D9341505040DB
S1131A50E0F70895FC016150704001900110D8F73F
S1131A60809590958E0F9F1F08950F931F93CF938A
S1131A70DF93182F092FEB018B8181FD03C08FEFBA
S1131A809FEF20C082FF10C04E815F812C813D8179
S1131A90421753077CF4E881F9819F012F5F3F4F80
S1131AA039832883108306C0E885F985812F199529
S1131AB0892B29F72E813F812F5F3F4F3F832E8350
S1131AC0812F902FDF91CF911F910F910895FA01EB
S1131AD0AA27283051F1203181F1E8946F936E7F69
S1131AE06E5F7F4F8F4F9F4FAF4FB1E03ED0B4E05A
S1131AF03CD0670F781F891F9A1FA11D680F791F9B
S1131B008A1F911DA11D6A0F711D811D911DA11DAB
S1131B1020D009F468943F912AE0269F11243019BB
S1131B20305D3193DEF6CF010895462F4770405D56
S1131B304193B3E00FD0C9F7F6CF462F4F70405D05
S1131B404A3318F0495D31FD4052419302D0A9F760
S1131B50EACFB4E0A6959795879577956795BA955A
S1131B60C9F700976105710508959B01AC010A2E20
S1131B7006945795479537952795BA95C9F7620FF7
S1111B80731F841F951FA01D0895F894FFCFB6
S1131B8E000007032000B200640001000000000002
S1131B9E000000F825642025642025642025642097
S1131BAE25640A0076656C2025640A004D43503284
S1131BBE353531206973204E4F5420696E206E6F77
S1131BCE726D616C206D6F64652061667465722040
S1131BDE726573657421002845292063616E2E6336
S1131BEE3A205472616E736D697373696F6E2065FA
S1131BFE72726F72002845292063616E2E633A203B
S1131C0E52656365697665206572726F72004D4325
S1131C1E5032353531206973204E4F5420696E2071
S1131C2E636F6E66696775726174696F6E206D6F2E
S1131C3E6465206166746572207265736574210033
S1131C4E5A65726F3A2025640A004D61783A202550
S1071C5E640A000010
S9030000FC
