:1000000071C000008EC000008CC0000047C100001D
:1000100088C0000086C0000084C0000082C00000CC
:1000200080C000007EC000007CC000007AC00000DC
:1000300078C0000076C0000074C0000072C00000EC
:1000400070C000006EC000006CC000006AC00000FC
:1000500068C0000066C0000064C0000062C000000C
:1000600060C000005EC000005CC000005AC000001C
:1000700058C0000056C0000054C0000052C000002C
:1000800050C000004EC000004CC000004AC000003C
:1000900048C0000046C0000044C0000042C000004C
:1000A00040C000003EC000003CC000003AC000005C
:1000B00038C0000036C0000034C0000032C000006C
:1000C00030C000002EC000002CC000002AC000007C
:1000D00028C0000026C0000024C0000022C000008C
:1000E00020C0000011241FBECFEFD1E2DEBFCDBF84
:1000F00000E00CBF12E0A0E0B2E0ECE7FCE000E0C2
:100100000BBF02C007900D92AC3BB107D9F722E0BC
:10011000ACEBB2E001C01D92A73CB207E1F702D000
:10012000ABC56ECFCF93DF93CDB7DEB72B970FB6AE
:10013000F894DEBF0FBECDBF87E690E0B6D113D0F6
:1001400086E092E024D441D184E645D18FE99FE056
:100150000197F1F700C00000CE0101961DD08C81FF
:10016000819539D1F3CFEED040E060EE8FE0CDD075
:100170008EE0BBD0807E21F083E192E008C4089538
:1001800043E26FEF8BE2C1D0E9E6F0E0808180626C
:100190008083EA9A789408958F929F92AF92BF924B
:1001A000CF92DF92EF92FF920F931F93CF93DF9343
:1001B000CDB7DEB72B970FB6F894DEBF0FBECDBF1D
:1001C0006C0181E08093BC0281E68FD0A82E82E68C
:1001D0008CD0829586958770B12CAA0CBB1CAA0C7A
:1001E000BB1CAA0CBB1CA82A85E67FD08F70882E6A
:1001F00099F08E010C5F1F4F7801E80EF11C0F2E55
:10020000F6E69F2EF02D892D70D0F80181938F0195
:100210009394EE15FF05B9F71092BC02BA82A98239
:100220008B828BE0FE013196D60101900D928A956A
:10023000E1F7C6012B960FB6F894DEBF0FBECDBF17
:10024000DF91CF911F910F91FF90EF90DF90CF90B2
:10025000BF90AF909F908F900895CF938DE245D03F
:10026000C82F82FF03C082E592E091D3C1FF03C093
:1002700080E792E08CD3CF910895CF938CE235D074
:10028000C82F85FDEADFC0FF03C081E08093BC0278
:1002900040E06FEF8CE239D0CF9108951F920F921A
:1002A0000FB60F9211240BB60F922F933F934F93DB
:1002B0005F936F937F938F939F93AF93BF93EF93CE
:1002C000FF93DBDFFF91EF91BF91AF919F918F91F2
:1002D0007F916F915F914F913F912F910F900BBE46
:1002E0000F900FBE0F901F901895CF93C82FF894C2
:1002F000C6D083E0BED08C2FBCD080E0BAD0C82F4F
:10030000C0D078948C2FCF9108951F93CF93DF9313
:10031000182FD62FC42FF894B2D085E0AAD0812F01
:10032000A8D08D2FA6D08C2FA4D0ABD07894DF91FD
:10033000CF911F910895F894A2D080EC9AD0A1D0CB
:1003400078940895CF93DF931F92CDB7DEB78AD00C
:10035000F2DF8FE39CE90197F1F700C000008EE027
:10036000C4DF89838981807E803829F089E892E022
:100370000ED381E001C080E00F90DF91CF9108950E
:10038000A0E8B0E022E02C93E1E8F0E028E120834F
:100390002C9120682C9320812360208320E030E082
:1003A0004AE753E447D264D1709387006093860094
:1003B000259A089520E030E04AE753E43BD258D133
:1003C0007093890060938800089560E070E080EA8F
:1003D00091E4D6CF0895CF92DF92EF92FF92682FEB
:1003E000772767FD7095872F972F70D120E030E039
:1003F00048EC52E4D5D020E030E040E05FE31AD290
:1004000020E030E040EC5FE363D06B017C0126E646
:1004100036E646E050E40AD2181654F026E636E6F0
:1004200046E65FE3C701B601B7D088235CF012C08F
:100430000F2EF6E6CF2EDC2CF6E0EF2EF0E4FF2EAA
:10044000F02D08C00F2EF6E6CF2EDC2CEC2CFFE3AF
:10045000FF2EF02DC701B601ADDFFF90EF90DF90CA
:10046000CF90089587E884B9289A8CB581658CBDB2
:1004700008958EBD0DB407FEFDCF8EB508952F985B
:1004800008952F9A0895E0ECF0E0908195FFFDCF5C
:100490008093C60080E090E00895E0ECF0E0808179
:1004A0008823ECF78091C60008959093C50080934F
:1004B000C40088E18093C1008EE08093C2006DE4A7
:1004C00072E083E492E019D280E090E00895505801
:1004D000BB27AA270ED070C161D130F066D120F0C1
:1004E00031F49F3F11F41EF456C10EF4E095E7FB82
:1004F0004CC1E92F72D180F3BA17620773078407E2
:10050000950718F071F49EF58AC10EF4E0950B2E54
:10051000BA2FA02D0B01B90190010C01CA01A00155
:100520001124FF27591B99F0593F50F4503E68F1B0
:100530001A16F040A22F232F342F4427585FF3CFF1
:10054000469537952795A795F0405395C9F77EF4C2
:100550001F16BA0B620B730B840BBAF09150A1F00B
:10056000FF0FBB1F661F771F881FC2F70EC0BA0F91
:10057000621F731F841F48F4879577956795B79519
:10058000F7959E3F08F0B3CF9395880F08F0992711
:10059000EE0F979587950895D4D008F481E00895DB
:1005A0000CD00AC102D140F0F9D030F021F45F3F05
:1005B00019F0EBC0511134C1EEC00FD198F399235B
:1005C000C9F35523B1F3951B550BBB27AA27621717
:1005D0007307840738F09F5F5F4F220F331F441F5C
:1005E000AA1FA9F333D00E2E3AF0E0E830D0915094
:1005F0005040E695001CCAF729D0FE2F27D0660F81
:10060000771F881FBB1F261737074807AB07B0E8BF
:1006100009F0BB0B802DBF01FF2793585F4F2AF0D5
:100620009E3F510568F0B1C0FBC05F3FECF3983EC0
:10063000DCF3869577956795B795F7959F5FC9F732
:10064000880F911D9695879597F90895E1E0660FBB
:10065000771F881FBB1F621773078407BA0720F034
:10066000621B730B840BBA0BEE1F88F7E09508959D
:10067000BCD088F09F5790F0B92F9927B751A0F0C0
:10068000D1F0660F771F881F991F1AF0BA95C9F726
:1006900012C0B13081F0C3D0B1E00895C0C0672F5F
:1006A000782F8827B85F39F0B93FCCF386957795D6
:1006B0006795B395D9F73EF49095809570956195BF
:1006C0007F4F8F4F9F4F0895E89409C097FB3EF4EA
:1006D00090958095709561957F4F8F4F9F4F99238F
:1006E000A9F0F92F96E9BB279395F695879577950D
:1006F0006795B795F111F8CFFAF4BB0F11F460FFCD
:100700001BC06F5F7F4F8F4F9F4F16C0882311F024
:1007100096E911C0772321F09EE8872F762F05C038
:10072000662371F096E8862F70E060E02AF09A95D3
:10073000660F771F881FDAF7880F9695879597F9C8
:100740000895990F0008550FAA0BE0E8FEEF161662
:100750001706E807F907C0F012161306E407F507B5
:1007600098F0621B730B840B950B39F40A2661F029
:10077000232B242B252B21F408950A2609F4A140CC
:10078000A6958FEF811D811D089597F99F6780E8D9
:1007900070E060E008959FEF80EC089500240A94D3
:1007A0001616170618060906089500240A9412164C
:1007B0001306140605060895092E0394000C11F47F
:1007C000882352F0BB0F40F4BF2B11F460FF04C02C
:1007D0006F5F7F4F8F4F9F4F089557FD9058440F85
:1007E000551F59F05F3F71F04795880F97FB991F90
:1007F00061F09F3F79F0879508951216130614064D
:10080000551FF2CF4695F1DF08C0161617061806D9
:10081000991FF1CF86957105610508940895E894B4
:10082000BB2766277727CB0197F908958ADF08F45D
:100830008FEF08950BD0C0CFB1DF28F0B6DF18F0EE
:10084000952309F0A2CFA7CF1124EACFC6DFA0F3EA
:10085000959FD1F3950F50E0551F629FF001729F55
:10086000BB27F00DB11D639FAA27F00DB11DAA1F74
:10087000649F6627B00DA11D661F829F2227B00DC1
:10088000A11D621F739FB00DA11D621F839FA00D4C
:10089000611D221F749F3327A00D611D231F849F9C
:1008A000600D211D822F762F6A2F11249F575040F3
:1008B0008AF0E1F088234AF0EE0FFF1FBB1F661F8E
:1008C000771F881F91505040A9F79E3F510570F047
:1008D0005CCFA6CF5F3FECF3983EDCF3869577952F
:1008E0006795B795F795E7959F5FC1F7FE2B880F42
:1008F000911D9695879597F908950F931F93CF9320
:10090000DF93EC018B01009731F46115710519F447
:1009100080E090E037C06EE070E081E090E064D06D
:10092000FC010097A9F380E883830115110571F09C
:100930001387028781E883838091BD029091BE0274
:10094000892B21F4F093BE02E093BD022097C9F0F9
:10095000D187C0878381826083838091BF02909119
:10096000C002892B71F4F093C002E093BF02809122
:10097000C1029091C202892B21F4F093C202E0934C
:10098000C102CF01DF91CF911F910F9108950F9375
:100990001F93CF93DF93E091BF02F091C0022381B8
:1009A00021FF1BC0EC0100E010E089916091BF02C3
:1009B0007091C002DB011896ED91FC911997882384
:1009C00031F01995892B89F30FEF1FEFEECF8AE0F5
:1009D0001995892B11F4C80102C08FEF9FEFDF91A9
:1009E000CF911F910F9108950F931F93CF93DF9392
:1009F000869F8001879F100D969F100D1124C801BE
:100A00000DD0EC01009721F0A80160E070E02DD13D
:100A1000CE01DF91CF911F910F910895CF93DF9376
:100A20008230910510F482E090E0E091C502F091EF
:100A3000C60220E030E0A0E0B0E0309739F140811C
:100A4000518148175907B8F04817590771F4828146
:100A50009381109729F013969C938E9312972CC034
:100A60009093C6028093C50227C02115310531F04D
:100A70004217530718F0A901DB0101C0EF019A01E9
:100A8000BD01DF010280F381E02DD7CF21153105B3
:100A9000F9F0281B390B2430310580F48A819B81C1
:100AA0006115710521F0FB019383828304C090934B
:100AB000C6028093C502FE01329644C0FE01E20FD9
:100AC000F31F8193919322503109398328833AC0CF
:100AD0002091C3023091C402232B41F420910202E1
:100AE000309103023093C4022093C302209100028C
:100AF000309101022115310541F42DB73EB74091E7
:100B0000040250910502241B350BE091C302F091C1
:100B1000C402E217F307A0F42E1B3F0B2817390776
:100B200078F0AC014E5F5F4F2417350748F04E0F49
:100B30005F1F5093C4024093C3028193919302C0FC
:100B4000E0E0F0E0CF01DF91CF910895CF93DF9304
:100B5000009709F487C0FC01329713821282C0917A
:100B6000C502D091C602209781F420813181280FDF
:100B7000391F8091C3029091C4028217930779F5BF
:100B8000F093C402E093C3026DC0DE0120E030E0C8
:100B9000AE17BF0750F412964D915C9113979D01CB
:100BA0004115510509F1DA01F3CFB383A2834081E6
:100BB0005181840F951F8A179B0771F48D919C9129
:100BC0001197840F951F02969183808312968D91C1
:100BD0009C911397938382832115310529F4F09317
:100BE000C602E093C5023EC0D9011396FC93EE9372
:100BF00012974D915D91A40FB51FEA17FB0779F489
:100C000080819181840F951F0296D90111969C9342
:100C10008E938281938113969C938E931297E0E03A
:100C2000F0E08A819B81009719F0FE01EC01F9CF79
:100C3000CE01029628813981820F931F2091C30231
:100C40003091C4022817390769F4309729F41092BB
:100C5000C6021092C50202C013821282D093C4024F
:100C6000C093C302DF91CF910895DC0101C06D9361
:0C0C700041505040E0F70895F894FFCF89
:100C7C000000C702200048656C6C6F20776F726CA7
:100C8C006421004D435032353531206973204E4F6D
:100C9C005420696E206E6F726D616C206D6F64658F
:100CAC0020616674657220726573657421005365EA
:100CBC006E64696E67206D6573736167652025646A
:100CCC000A002845292063616E2E633A2054726114
:100CDC006E736D697373696F6E206572726F7200DB
:100CEC002845292063616E2E633A2052656365693D
:100CFC007665206572726F72004D43503235353116
:100D0C00206973204E4F5420696E20636F6E6669A4
:100D1C006775726174696F6E206D6F6465206166B2
:0C0D2C007465722072657365742100000C
:00000001FF
