:10000000C2C00000DFC00000DDC000002FC1000042
:10001000D9C00000D7C0000097C20000D3C00000C4
:10002000D1C00000CFC00000CDC00000CBC0000098
:10003000C9C00000C7C00000C5C00000C3C00000A8
:10004000C1C00000BFC00000BDC00000BBC00000B8
:10005000B9C00000B7C00000B5C00000B3C00000C8
:10006000B1C00000AFC00000ADC00000ABC00000D8
:10007000A9C00000A7C00000A5C00000A3C00000E8
:10008000A1C000009FC000009DC000009BC00000F8
:1000900099C0000097C0000095C000009EC10000FC
:1000A00091C000008FC000008DC000008BC0000018
:1000B00089C0000087C0000085C0000083C0000028
:1000C00081C000007FC000007DC000007BC0000038
:1000D00079C0000077C0000075C0000073C0000048
:1000E00071C0000008025A025A025A025A025A0209
:1000F0005A025A0208025A025A025A025A025A0272
:100100005A025A020A025A025A025A025A025A025F
:100110005A025A025A025A025A025A025A025A02FF
:100120005A025A020A025A025A025A025A025A023F
:100130005A025A025A025A025A025A025A025A02DF
:100140005A025A0256025A025A025A025A025A02D3
:100150005A025A0233025A025A025A025A025A02E6
:100160005A025A025A025A025A025A025A025A02AF
:100170005A025A0227025A025A025A025A025A02D2
:100180005A025A02450211241FBECFEFD1E2DEBF50
:10019000CDBF00E00CBF12E0A0E0B2E0E8E8F0E183
:1001A00000E00BBF02C007900D92AA3AB107D9F741
:1001B00022E0AAEAB2E001C01D92AF3BB207E1F72C
:1001C00002D060C71DCF87E690E09CD115D075D0D6
:1001D000E6D0F0D0A9D1B2D18FE39CE90197F1F735
:1001E00000C00000F8CFEAE7F0E0808180688083FB
:1001F00080818760808308958FD040E060EE8FE03B
:100200006ED08EE05CD0807E21F087E092E031C33A
:10021000089543E26FEF8BE262D0E9E6F0E080817F
:1002200080628083EA9A78940895CF938DE247D0D4
:10023000C82F82FF03C082E392E01BD3C1FF03C03B
:1002400080E592E016D3CF910895CF938CE237D01A
:10025000C82F85FDEADFC0FF03C081E08093B402B0
:1002600040E06FEF8CE23BD0CF9108951F920F9248
:100270000FB60F9211240BB60F922F933F934F930B
:100280005F936F937F938F939F93AF93BF93EF93FE
:10029000FF93DBDFFF91EF91BF91AF919F918F9122
:1002A0007F916F915F914F913F912F910F900BBE76
:1002B0000F900FBE0F901F90189595CF0895CF9374
:1002C000C82FF89486D083E07ED08C2F7CD080E03D
:1002D0007AD0C82F80D078948C2FCF9108951F9317
:1002E000CF93DF93182FD62FC42FF89472D085E0C8
:1002F0006AD0812F68D08D2F66D08C2F64D06BD0C0
:100300007894DF91CF911F910895F89462D080EC9A
:100310005AD061D078940895CF93DF931F92CDB7D0
:10032000DEB74AD0F2DF8FE39CE90197F1F700C016
:1003300000008EE0C4DF89838981807E803829F0C7
:1003400089E692E096D281E001C080E00F90DF91D3
:10035000CF910895A0E8B0E022E02C93E1E8F0E02E
:1003600028E120832C9120682C9320812360208316
:1003700020E030E04AE753E4B8D13AD170938700E7
:1003800060938600259A089520E030E04AE753E420
:10039000ACD12ED17093890060938800089560E0FD
:1003A00070E080EA91E4D6DF67ED73EA80EC9FE3CA
:1003B000EBCF08956C9A089587E884B9289A8CB594
:1003C00081658CBD08958EBD0DB407FEFDCF8EB541
:1003D00008952F9808952F9A08951F920F920FB69F
:1003E0000F9211240BB60F922F933F938F939F93ED
:1003F000AF93BF93EF93FF938091B90090E0FC011E
:100400003897E135F10508F055C0EE58FF4FD0C1DF
:100410001092AA02E091AA028091AC02E81770F44F
:1004200081E08E0F8093AA02F0E0E355FD4F8081BA
:100430008093BB0085E88093BC0043C08091AB02F1
:1004400081608093AB0284E98093BC003AC0E09164
:10045000AA0281E08E0F8093AA028091BB00F0E097
:10046000E355FD4F80832091AA0230E08091AC02D9
:1004700090E001972817390724F485EC8093BC009D
:1004800020C085E88093BC001CC08091BB00E09137
:10049000AA02F0E0E355FD4F80838091AB028160BA
:1004A0008093AB0284E98093BC000BC085EA809303
:1004B000BC0007C08091B9008093060284E080935D
:1004C000BC00FF91EF91BF91AF919F918F913F91B0
:1004D0002F910F900BBE0F900FBE0F901F9018958D
:1004E000E0ECF0E0908195FFFDCF8093C60080E0C6
:1004F00090E00895E0ECF0E080818823ECF78091B3
:10050000C60008959093C5008093C40088E180934D
:10051000C1008EE08093C2006AE772E080E792E05B
:100520004DD180E090E008956B9A6D98ED9AEAE6DF
:10053000F0E080818460808378940895739A80E5E8
:100540008A95F1F7739808951F920F920FB60F9244
:1005500011240BB60F922F933F934F935F936F939A
:100560007F938F939F93AF93BF93CF93DF93EF933B
:10057000FF938091B1028823F1F010929100C4E9B9
:10058000D0E0888199819093B3028093B2028091E8
:10059000B2029091B3029F938F938BE992E09F9365
:1005A0008F9356D1198218821092B1020F900F903A
:1005B0000F900F9008C0E1E9F0E0808181608083B6
:1005C00081E08093B102FF91EF91DF91CF91BF91D4
:1005D000AF919F918F917F916F915F914F913F91DB
:1005E0002F910F900BBE0F900FBE0F901F9018957C
:1005F0005BD088F09F5790F0B92F9927B751A0F0A2
:10060000D1F0660F771F881F991F1AF0BA95C9F7A6
:1006100012C0B13081F062D0B1E008955FC0672FA1
:10062000782F8827B85F39F0B93FCCF38695779556
:100630006795B395D9F73EF490958095709561953F
:100640007F4F8F4F9F4F089597F99F6780E870E025
:1006500060E008959FEF80EC089500240A94161638
:10066000170618060906089500240A9412161306A0
:10067000140605060895092E0394000C11F488232E
:1006800052F0BB0F40F4BF2B11F460FF04C06F5F4A
:100690007F4F8F4F9F4F089557FD9058440F551F20
:1006A00059F05F3F71F04795880F97FB991F61F0F4
:1006B0009F3F79F087950895121613061406551F6B
:1006C000F2CF4695F1DF08C0161617061806991FD7
:1006D000F1CF86957105610508940895E894BB27CC
:1006E00066277727CB0197F908950BD0C4CFB5DFE4
:1006F00028F0BADF18F0952309F0A6CFABCF11246C
:10070000EECFCADFA0F3959FD1F3950F50E0551FB0
:10071000629FF001729FBB27F00DB11D639FAA2756
:10072000F00DB11DAA1F649F6627B00DA11D661FA5
:10073000829F2227B00DA11D621F739FB00DA11DC6
:10074000621F839FA00D611D221F749F3327A00D80
:10075000611D231F849F600D211D822F762F6A2F1C
:1007600011249F5750408AF0E1F088234AF0EE0FA1
:10077000FF1FBB1F661F771F881F91505040A9F7AE
:100780009E3F510570F060CFAACF5F3FECF3983EDB
:10079000DCF3869577956795B795F795E7959F5F15
:1007A000C1F7FE2B880F911D9695879597F90895AF
:1007B000EE0FFF1F0590F491E02D19940F931F93F6
:1007C000CF93DF93EC018B01009731F46115710534
:1007D00019F480E090E037C06EE070E081E090E0D6
:1007E00063D2FC010097A9F380E88383011511050A
:1007F00071F01387028781E883838091B50290911D
:10080000B602892B21F4F093B602E093B50220974B
:10081000C9F0D187C0878381826083838091B702CA
:100820009091B802892B71F4F093B802E093B7026B
:100830008091B9029091BA02892B21F4F093BA0207
:10084000E093B902CF01DF91CF911F910F910895ED
:10085000CF93DF93CDB7DEB7FE01369661917191EC
:10086000AF018091B7029091B80230D0DF91CF9163
:1008700008950F931F93CF93DF93E091B702F09108
:10088000B802238121FF1BC0EC0100E010E0899138
:100890006091B7027091B802DB011896ED91FC915E
:1008A0001997882331F01995892B89F30FEF1FEFE2
:1008B000EECF8AE01995892B11F4C80102C08FEFA1
:1008C0009FEFDF91CF911F910F9108952F923F924B
:1008D0004F925F926F927F928F929F92AF92BF9250
:1008E000CF92DF92EF92FF920F931F93CF93DF93FC
:1008F000CDB7DEB72C970FB6F894DEBF0FBECDBFD5
:100900007C016B018A01FC0117821682838181FFC1
:10091000B0C1CE0101964C01F7019381F60193FD20
:10092000859193FF81916F01882309F49EC18532DF
:1009300039F493FD859193FF81916F01853221F404
:10094000B70190E00FD3E8CF512C312C20E02032BA
:10095000A0F48B3269F030F4803259F0833269F4BC
:1009600020612CC08D3239F0803339F4216026C0EB
:100970002260246023C0286021C027FD27C030EDFD
:10098000380F3A3078F426FF06C0FAE05F9E300D4B
:100990001124532E13C08AE0389E300D1124332EBB
:1009A00020620CC08E3221F426FD5FC1206406C097
:1009B0008C3611F4206802C0883641F4F60193FDAC
:1009C000859193FF81916F018111C1CF982F9F7DF8
:1009D0009554933028F40C5F1F4FFFE3F9830DC04B
:1009E000833631F0833771F0833509F057C021C069
:1009F000F801808189830E5F1F4F44244394512C5A
:100A0000540114C03801F2E06F0E711CF801A0808F
:100A1000B18026FF03C0652D70E002C06FEF7FEF4D
:100A2000C5012C8794D22C0183012C852F77222E8F
:100A300016C03801F2E06F0E711CF801A080B18081
:100A400026FF03C0652D70E002C06FEF7FEFC50188
:100A50002C876BD22C012C852068222E830123FC4D
:100A600019C0832D90E048165906A0F4B70180E222
:100A700090E078D23A94F5CFF50127FC859127FED6
:100A800081915F01B70190E06DD231103A94F1E0AD
:100A90004F1A51084114510479F7DEC0843611F021
:100AA000893631F5F80127FF07C0608171818281A5
:100AB00093810C5F1F4F08C060817181882777FD8B
:100AC0008095982F0E5F1F4F2F76B22E97FF09C08B
:100AD00090958095709561957F4F8F4F9F4F2068BF
:100AE000B22E2AE030E0A4016FD2A82EA81843C08D
:100AF000853729F42F7EB22E2AE030E025C0F22F70
:100B0000F97FBF2E8F36C1F018F4883579F0ADC06B
:100B1000803719F0883721F0A8C02F2F2061B22E1E
:100B2000B4FE0DC08B2D8460B82E09C024FF0AC00E
:100B30009F2F9660B92E06C028E030E005C020E166
:100B400030E002C020E132E0F801B7FE07C060816A
:100B50007181828193810C5F1F4F06C0608171811A
:100B600080E090E00E5F1F4FA4012ED2A82EA8189F
:100B7000FB2DFF77BF2EB6FE0BC02B2D2E7FA514AD
:100B800050F4B4FE0AC0B2FC08C02B2D2E7E05C066
:100B90007A2C2B2D03C07A2C01C0752C24FF0DC09C
:100BA000FE01EA0DF11D8081803311F4297E09C018
:100BB00022FF06C07394739404C0822F867809F0D4
:100BC000739423FD12C020FF06C05A2C731418F42E
:100BD000530C5718732C731460F4B70180E290E043
:100BE0002C87C0D173942C85F6CF731410F437186A
:100BF00001C0312C24FF11C0B70180E390E02C87A5
:100C0000B1D12C8522FF16C021FF03C088E590E0FA
:100C100002C088E790E0B7010CC0822F867851F0BF
:100C200021FD02C080E201C08BE227FD8DE2B70109
:100C300090E098D1A51430F4B70180E390E092D110
:100C40005A94F8CFAA94F401EA0DF11D8081B701FE
:100C500090E088D1A110F6CF332009F45DCEB70122
:100C600080E290E07FD13A94F7CFF70186819781B7
:100C700002C08FEF9FEF2C960FB6F894DEBF0FBE29
:100C8000CDBFDF91CF911F910F91FF90EF90DF903B
:100C9000CF90BF90AF909F908F907F906F905F901C
:100CA0004F903F902F9008950F931F93CF93DF9312
:100CB000869F8001879F100D969F100D1124C801FB
:100CC0000DD0EC01009721F0A80160E070E038D170
:100CD000CE01DF91CF911F910F910895CF93DF93B4
:100CE0008230910510F482E090E0E091BD02F09135
:100CF000BE0220E030E0A0E0B0E0309739F1408162
:100D0000518148175907B8F04817590771F4828183
:100D10009381109729F013969C938E9312972CC071
:100D20009093BE028093BD0227C02115310531F09A
:100D30004217530718F0A901DB0101C0EF019A0126
:100D4000BD01DF010280F381E02DD7CF21153105F0
:100D5000F9F0281B390B2430310580F48A819B81FE
:100D60006115710521F0FB019383828304C0909388
:100D7000BE028093BD02FE01329644C0FE01E20F26
:100D8000F31F8193919322503109398328833AC00C
:100D90002091BB023091BC02232B41F4209102022E
:100DA000309103023093BC022093BB0220910002D9
:100DB000309101022115310541F42DB73EB7409124
:100DC000040250910502241B350BE091BB02F09107
:100DD000BC02E217F307A0F42E1B3F0B28173907BC
:100DE00078F0AC014E5F5F4F2417350748F04E0F87
:100DF0005F1F5093BC024093BB028193919302C04A
:100E0000E0E0F0E0CF01DF91CF910895CF93DF9341
:100E1000009709F487C0FC01329713821282C091B7
:100E2000BD02D091BE02209781F420813181280F2C
:100E3000391F8091BB029091BC028217930779F50C
:100E4000F093BC02E093BB026DC0DE0120E030E015
:100E5000AE17BF0750F412964D915C9113979D0108
:100E60004115510509F1DA01F3CFB383A283408123
:100E70005181840F951F8A179B0771F48D919C9166
:100E80001197840F951F02969183808312968D91FE
:100E90009C911397938382832115310529F4F09354
:100EA000BE02E093BD023EC0D9011396FC93EE93BF
:100EB00012974D915D91A40FB51FEA17FB0779F4C6
:100EC00080819181840F951F0296D90111969C9380
:100ED0008E938281938113969C938E931297E0E078
:100EE000F0E08A819B81009719F0FE01EC01F9CFB7
:100EF000CE01029628813981820F931F2091BB0277
:100F00003091BC022817390769F4309729F4109200
:100F1000BE021092BD0202C013821282D093BC02A4
:100F2000C093BB02DF91CF910895FC010590615001
:100F300070400110D8F7809590958E0F9F1F0895EF
:100F4000DC0101C06D9341505040E0F70895FC0171
:100F50006150704001900110D8F7809590958E0FE8
:100F60009F1F08950F931F93CF93DF93182F092F7F
:100F7000EB018B8181FD03C08FEF9FEF20C082FFCB
:100F800010C04E815F812C813D81421753077CF454
:100F9000E881F9819F012F5F3F4F398328831083B8
:100FA00006C0E885F985812F1995892B29F72E81AF
:100FB0003F812F5F3F4F3F832E83812F902FDF9103
:100FC000CF911F910F910895FA01AA27283051F16E
:100FD000203181F1E8946F936E7F6E5F7F4F8F4F6A
:100FE0009F4FAF4FB1E03ED0B4E03CD0670F781FC9
:100FF000891F9A1FA11D680F791F8A1F911DA11DAE
:101000006A0F711D811D911DA11D20D009F46894E6
:101010003F912AE0269F11243019305D3193DEF68E
:10102000CF010895462F4770405D4193B3E00FD044
:10103000C9F7F6CF462F4F70405D4A3318F0495D2F
:1010400031FD4052419302D0A9F7EACFB4E0A69512
:101050009795879577956795BA95C9F70097610534
:10106000710508959B01AC010A2E0694579547958A
:1010700037952795BA95C9F7620F731F841F951F7F
:08108000A01D0895F894FFCFB4
:101088000000BF022000F84D435032353531206949
:1010980073204E4F5420696E206E6F726D616C2004
:1010A8006D6F64652061667465722072657365741E
:1010B80021002845292063616E2E633A205472610D
:1010C8006E736D697373696F6E206572726F7200EB
:1010D8002845292063616E2E633A2052656365694D
:1010E8007665206572726F72004D43503235353126
:1010F800206973204E4F5420696E20636F6E6669B5
:101108006775726174696F6E206D6F6465206166C2
:101118007465722072657365742100447572617418
:0A112800696F6E3A2025640A00008A
:00000001FF
